{
  "_format": "hh-sol-artifact-1",
  "contractName": "NFT",
  "sourceName": "src/backend/contracts/NFT.sol",
  "abi": [
    {
      "inputs": [],
      "stateMutability": "nonpayable",
      "type": "constructor"
    },
    {
      "anonymous": false,
      "inputs": [
        {
          "indexed": true,
          "internalType": "address",
          "name": "owner",
          "type": "address"
        },
        {
          "indexed": true,
          "internalType": "address",
          "name": "approved",
          "type": "address"
        },
        {
          "indexed": true,
          "internalType": "uint256",
          "name": "tokenId",
          "type": "uint256"
        }
      ],
      "name": "Approval",
      "type": "event"
    },
    {
      "anonymous": false,
      "inputs": [
        {
          "indexed": true,
          "internalType": "address",
          "name": "owner",
          "type": "address"
        },
        {
          "indexed": true,
          "internalType": "address",
          "name": "operator",
          "type": "address"
        },
        {
          "indexed": false,
          "internalType": "bool",
          "name": "approved",
          "type": "bool"
        }
      ],
      "name": "ApprovalForAll",
      "type": "event"
    },
    {
      "anonymous": false,
      "inputs": [
        {
          "indexed": false,
          "internalType": "uint256",
          "name": "_fromTokenId",
          "type": "uint256"
        },
        {
          "indexed": false,
          "internalType": "uint256",
          "name": "_toTokenId",
          "type": "uint256"
        }
      ],
      "name": "BatchMetadataUpdate",
      "type": "event"
    },
    {
      "anonymous": false,
      "inputs": [
        {
          "indexed": false,
          "internalType": "uint256",
          "name": "_tokenId",
          "type": "uint256"
        }
      ],
      "name": "MetadataUpdate",
      "type": "event"
    },
    {
      "anonymous": false,
      "inputs": [
        {
          "indexed": true,
          "internalType": "address",
          "name": "previousOwner",
          "type": "address"
        },
        {
          "indexed": true,
          "internalType": "address",
          "name": "newOwner",
          "type": "address"
        }
      ],
      "name": "OwnershipTransferred",
      "type": "event"
    },
    {
      "anonymous": false,
      "inputs": [
        {
          "indexed": true,
          "internalType": "address",
          "name": "from",
          "type": "address"
        },
        {
          "indexed": true,
          "internalType": "address",
          "name": "to",
          "type": "address"
        },
        {
          "indexed": true,
          "internalType": "uint256",
          "name": "tokenId",
          "type": "uint256"
        }
      ],
      "name": "Transfer",
      "type": "event"
    },
    {
      "inputs": [
        {
          "internalType": "address",
          "name": "to",
          "type": "address"
        },
        {
          "internalType": "uint256",
          "name": "tokenId",
          "type": "uint256"
        }
      ],
      "name": "approve",
      "outputs": [],
      "stateMutability": "nonpayable",
      "type": "function"
    },
    {
      "inputs": [
        {
          "internalType": "address",
          "name": "owner",
          "type": "address"
        }
      ],
      "name": "balanceOf",
      "outputs": [
        {
          "internalType": "uint256",
          "name": "",
          "type": "uint256"
        }
      ],
      "stateMutability": "view",
      "type": "function"
    },
    {
      "inputs": [
        {
          "internalType": "uint256",
          "name": "tokenId",
          "type": "uint256"
        }
      ],
      "name": "burn",
      "outputs": [],
      "stateMutability": "nonpayable",
      "type": "function"
    },
    {
      "inputs": [
        {
          "internalType": "uint256",
          "name": "tokenId",
          "type": "uint256"
        }
      ],
      "name": "getApproved",
      "outputs": [
        {
          "internalType": "address",
          "name": "",
          "type": "address"
        }
      ],
      "stateMutability": "view",
      "type": "function"
    },
    {
      "inputs": [
        {
          "internalType": "address",
          "name": "owner",
          "type": "address"
        },
        {
          "internalType": "address",
          "name": "operator",
          "type": "address"
        }
      ],
      "name": "isApprovedForAll",
      "outputs": [
        {
          "internalType": "bool",
          "name": "",
          "type": "bool"
        }
      ],
      "stateMutability": "view",
      "type": "function"
    },
    {
      "inputs": [
        {
          "internalType": "string",
          "name": "_tokenURI",
          "type": "string"
        }
      ],
      "name": "mint",
      "outputs": [
        {
          "internalType": "uint256",
          "name": "",
          "type": "uint256"
        }
      ],
      "stateMutability": "nonpayable",
      "type": "function"
    },
    {
      "inputs": [],
      "name": "name",
      "outputs": [
        {
          "internalType": "string",
          "name": "",
          "type": "string"
        }
      ],
      "stateMutability": "view",
      "type": "function"
    },
    {
      "inputs": [],
      "name": "owner",
      "outputs": [
        {
          "internalType": "address",
          "name": "",
          "type": "address"
        }
      ],
      "stateMutability": "view",
      "type": "function"
    },
    {
      "inputs": [
        {
          "internalType": "uint256",
          "name": "tokenId",
          "type": "uint256"
        }
      ],
      "name": "ownerOf",
      "outputs": [
        {
          "internalType": "address",
          "name": "",
          "type": "address"
        }
      ],
      "stateMutability": "view",
      "type": "function"
    },
    {
      "inputs": [],
      "name": "renounceOwnership",
      "outputs": [],
      "stateMutability": "nonpayable",
      "type": "function"
    },
    {
      "inputs": [
        {
          "internalType": "address",
          "name": "from",
          "type": "address"
        },
        {
          "internalType": "address",
          "name": "to",
          "type": "address"
        },
        {
          "internalType": "uint256",
          "name": "tokenId",
          "type": "uint256"
        }
      ],
      "name": "safeTransferFrom",
      "outputs": [],
      "stateMutability": "nonpayable",
      "type": "function"
    },
    {
      "inputs": [
        {
          "internalType": "address",
          "name": "from",
          "type": "address"
        },
        {
          "internalType": "address",
          "name": "to",
          "type": "address"
        },
        {
          "internalType": "uint256",
          "name": "tokenId",
          "type": "uint256"
        },
        {
          "internalType": "bytes",
          "name": "data",
          "type": "bytes"
        }
      ],
      "name": "safeTransferFrom",
      "outputs": [],
      "stateMutability": "nonpayable",
      "type": "function"
    },
    {
      "inputs": [
        {
          "internalType": "address",
          "name": "operator",
          "type": "address"
        },
        {
          "internalType": "bool",
          "name": "approved",
          "type": "bool"
        }
      ],
      "name": "setApprovalForAll",
      "outputs": [],
      "stateMutability": "nonpayable",
      "type": "function"
    },
    {
      "inputs": [
        {
          "internalType": "bytes4",
          "name": "interfaceId",
          "type": "bytes4"
        }
      ],
      "name": "supportsInterface",
      "outputs": [
        {
          "internalType": "bool",
          "name": "",
          "type": "bool"
        }
      ],
      "stateMutability": "view",
      "type": "function"
    },
    {
      "inputs": [],
      "name": "symbol",
      "outputs": [
        {
          "internalType": "string",
          "name": "",
          "type": "string"
        }
      ],
      "stateMutability": "view",
      "type": "function"
    },
    {
      "inputs": [],
      "name": "tokenCount",
      "outputs": [
        {
          "internalType": "uint256",
          "name": "",
          "type": "uint256"
        }
      ],
      "stateMutability": "view",
      "type": "function"
    },
    {
      "inputs": [
        {
          "internalType": "uint256",
          "name": "tokenId",
          "type": "uint256"
        }
      ],
      "name": "tokenURI",
      "outputs": [
        {
          "internalType": "string",
          "name": "",
          "type": "string"
        }
      ],
      "stateMutability": "view",
      "type": "function"
    },
    {
      "inputs": [
        {
          "internalType": "address",
          "name": "from",
          "type": "address"
        },
        {
          "internalType": "address",
          "name": "to",
          "type": "address"
        },
        {
          "internalType": "uint256",
          "name": "tokenId",
          "type": "uint256"
        }
      ],
      "name": "transferFrom",
      "outputs": [],
      "stateMutability": "nonpayable",
      "type": "function"
    },
    {
      "inputs": [
        {
          "internalType": "address",
          "name": "newOwner",
          "type": "address"
        }
      ],
      "name": "transferOwnership",
      "outputs": [],
      "stateMutability": "nonpayable",
      "type": "function"
    }
  ],
  "bytecode": "60806040523480156200001157600080fd5b506040518060400160405280600e81526020017f54656c65666f6e696361204e46540000000000000000000000000000000000008152506040518060400160405280600381526020017f4c4741000000000000000000000000000000000000000000000000000000000081525081600090816200008f919062000412565b508060019081620000a1919062000412565b505050620000c4620000b8620000ca60201b60201c565b620000d260201b60201c565b620004f9565b600033905090565b6000600760009054906101000a900473ffffffffffffffffffffffffffffffffffffffff16905081600760006101000a81548173ffffffffffffffffffffffffffffffffffffffff021916908373ffffffffffffffffffffffffffffffffffffffff1602179055508173ffffffffffffffffffffffffffffffffffffffff168173ffffffffffffffffffffffffffffffffffffffff167f8be0079c531659141344cd1fd0a4f28419497f9722a3daafe3b4186f6b6457e060405160405180910390a35050565b600081519050919050565b7f4e487b7100000000000000000000000000000000000000000000000000000000600052604160045260246000fd5b7f4e487b7100000000000000000000000000000000000000000000000000000000600052602260045260246000fd5b600060028204905060018216806200021a57607f821691505b60208210810362000230576200022f620001d2565b5b50919050565b60008190508160005260206000209050919050565b60006020601f8301049050919050565b600082821b905092915050565b6000600883026200029a7fffffffffffffffffffffffffffffffffffffffffffffffffffffffffffffffff826200025b565b620002a686836200025b565b95508019841693508086168417925050509392505050565b6000819050919050565b6000819050919050565b6000620002f3620002ed620002e784620002be565b620002c8565b620002be565b9050919050565b6000819050919050565b6200030f83620002d2565b620003276200031e82620002fa565b84845462000268565b825550505050565b600090565b6200033e6200032f565b6200034b81848462000304565b505050565b5b8181101562000373576200036760008262000334565b60018101905062000351565b5050565b601f821115620003c2576200038c8162000236565b62000397846200024b565b81016020851015620003a7578190505b620003bf620003b6856200024b565b83018262000350565b50505b505050565b600082821c905092915050565b6000620003e760001984600802620003c7565b1980831691505092915050565b6000620004028383620003d4565b9150826002028217905092915050565b6200041d8262000198565b67ffffffffffffffff811115620004395762000438620001a3565b5b62000445825462000201565b6200045282828562000377565b600060209050601f8311600181146200048a576000841562000475578287015190505b620004818582620003f4565b865550620004f1565b601f1984166200049a8662000236565b60005b82811015620004c4578489015182556001820191506020850194506020810190506200049d565b86831015620004e45784890151620004e0601f891682620003d4565b8355505b6001600288020188555050505b505050505050565b6131e580620005096000396000f3fe608060405234801561001057600080fd5b50600436106101215760003560e01c8063715018a6116100ad578063b88d4fde11610071578063b88d4fde146102f4578063c87b56dd14610310578063d85d3d2714610340578063e985e9c514610370578063f2fde38b146103a057610121565b8063715018a6146102745780638da5cb5b1461027e57806395d89b411461029c5780639f181b5e146102ba578063a22cb465146102d857610121565b806323b872dd116100f457806323b872dd146101c057806342842e0e146101dc57806342966c68146101f85780636352211e1461021457806370a082311461024457610121565b806301ffc9a71461012657806306fdde0314610156578063081812fc14610174578063095ea7b3146101a4575b600080fd5b610140600480360381019061013b9190611f72565b6103bc565b60405161014d9190611fba565b60405180910390f35b61015e6103ce565b60405161016b9190612065565b60405180910390f35b61018e600480360381019061018991906120bd565b610460565b60405161019b919061212b565b60405180910390f35b6101be60048036038101906101b99190612172565b6104a6565b005b6101da60048036038101906101d591906121b2565b6105bd565b005b6101f660048036038101906101f191906121b2565b61061d565b005b610212600480360381019061020d91906120bd565b61063d565b005b61022e600480360381019061022991906120bd565b610699565b60405161023b919061212b565b60405180910390f35b61025e60048036038101906102599190612205565b61071f565b60405161026b9190612241565b60405180910390f35b61027c6107d6565b005b6102866107ea565b604051610293919061212b565b60405180910390f35b6102a4610814565b6040516102b19190612065565b60405180910390f35b6102c26108a6565b6040516102cf9190612241565b60405180910390f35b6102f260048036038101906102ed9190612288565b6108ac565b005b61030e600480360381019061030991906123fd565b6108c2565b005b61032a600480360381019061032591906120bd565b610924565b6040516103379190612065565b60405180910390f35b61035a60048036038101906103559190612521565b610936565b6040516103679190612241565b60405180910390f35b61038a6004803603810190610385919061256a565b610972565b6040516103979190611fba565b60405180910390f35b6103ba60048036038101906103b59190612205565b610a06565b005b60006103c782610a89565b9050919050565b6060600080546103dd906125d9565b80601f0160208091040260200160405190810160405280929190818152602001828054610409906125d9565b80156104565780601f1061042b57610100808354040283529160200191610456565b820191906000526020600020905b81548152906001019060200180831161043957829003601f168201915b5050505050905090565b600061046b82610aea565b6004600083815260200190815260200160002060009054906101000a900473ffffffffffffffffffffffffffffffffffffffff169050919050565b60006104b182610699565b90508073ffffffffffffffffffffffffffffffffffffffff168373ffffffffffffffffffffffffffffffffffffffff1603610521576040517f08c379a00000000000000000000000000000000000000000000000000000000081526004016105189061267c565b60405180910390fd5b8073ffffffffffffffffffffffffffffffffffffffff16610540610b35565b73ffffffffffffffffffffffffffffffffffffffff16148061056f575061056e81610569610b35565b610972565b5b6105ae576040517f08c379a00000000000000000000000000000000000000000000000000000000081526004016105a59061270e565b60405180910390fd5b6105b88383610b3d565b505050565b6105ce6105c8610b35565b82610bf6565b61060d576040517f08c379a0000000000000000000000000000000000000000000000000000000008152600401610604906127a0565b60405180910390fd5b610618838383610c8b565b505050565b610638838383604051806020016040528060008152506108c2565b505050565b61064e610648610b35565b82610bf6565b61068d576040517f08c379a0000000000000000000000000000000000000000000000000000000008152600401610684906127a0565b60405180910390fd5b61069681610f84565b50565b6000806106a583610f90565b9050600073ffffffffffffffffffffffffffffffffffffffff168173ffffffffffffffffffffffffffffffffffffffff1603610716576040517f08c379a000000000000000000000000000000000000000000000000000000000815260040161070d9061280c565b60405180910390fd5b80915050919050565b60008073ffffffffffffffffffffffffffffffffffffffff168273ffffffffffffffffffffffffffffffffffffffff160361078f576040517f08c379a00000000000000000000000000000000000000000000000000000000081526004016107869061289e565b60405180910390fd5b600360008373ffffffffffffffffffffffffffffffffffffffff1673ffffffffffffffffffffffffffffffffffffffff168152602001908152602001600020549050919050565b6107de610fcd565b6107e8600061104b565b565b6000600760009054906101000a900473ffffffffffffffffffffffffffffffffffffffff16905090565b606060018054610823906125d9565b80601f016020809104026020016040519081016040528092919081815260200182805461084f906125d9565b801561089c5780601f106108715761010080835404028352916020019161089c565b820191906000526020600020905b81548152906001019060200180831161087f57829003601f168201915b5050505050905090565b60085481565b6108be6108b7610b35565b8383611111565b5050565b6108d36108cd610b35565b83610bf6565b610912576040517f08c379a0000000000000000000000000000000000000000000000000000000008152600401610909906127a0565b60405180910390fd5b61091e8484848461127d565b50505050565b606061092f826112d9565b9050919050565b60006008600081548092919061094b906128ed565b919050555061095c336008546113eb565b61096860085483611409565b6008549050919050565b6000600560008473ffffffffffffffffffffffffffffffffffffffff1673ffffffffffffffffffffffffffffffffffffffff16815260200190815260200160002060008373ffffffffffffffffffffffffffffffffffffffff1673ffffffffffffffffffffffffffffffffffffffff16815260200190815260200160002060009054906101000a900460ff16905092915050565b610a0e610fcd565b600073ffffffffffffffffffffffffffffffffffffffff168173ffffffffffffffffffffffffffffffffffffffff1603610a7d576040517f08c379a0000000000000000000000000000000000000000000000000000000008152600401610a74906129a7565b60405180910390fd5b610a868161104b565b50565b6000634906490660e01b7bffffffffffffffffffffffffffffffffffffffffffffffffffffffff1916827bffffffffffffffffffffffffffffffffffffffffffffffffffffffff19161480610ae35750610ae2826114ad565b5b9050919050565b610af38161158f565b610b32576040517f08c379a0000000000000000000000000000000000000000000000000000000008152600401610b299061280c565b60405180910390fd5b50565b600033905090565b816004600083815260200190815260200160002060006101000a81548173ffffffffffffffffffffffffffffffffffffffff021916908373ffffffffffffffffffffffffffffffffffffffff160217905550808273ffffffffffffffffffffffffffffffffffffffff16610bb083610699565b73ffffffffffffffffffffffffffffffffffffffff167f8c5be1e5ebec7d5bd14f71427d1e84f3dd0314c0f7b2291e5b200ac8c7c3b92560405160405180910390a45050565b600080610c0283610699565b90508073ffffffffffffffffffffffffffffffffffffffff168473ffffffffffffffffffffffffffffffffffffffff161480610c445750610c438185610972565b5b80610c8257508373ffffffffffffffffffffffffffffffffffffffff16610c6a84610460565b73ffffffffffffffffffffffffffffffffffffffff16145b91505092915050565b8273ffffffffffffffffffffffffffffffffffffffff16610cab82610699565b73ffffffffffffffffffffffffffffffffffffffff1614610d01576040517f08c379a0000000000000000000000000000000000000000000000000000000008152600401610cf890612a39565b60405180910390fd5b600073ffffffffffffffffffffffffffffffffffffffff168273ffffffffffffffffffffffffffffffffffffffff1603610d70576040517f08c379a0000000000000000000000000000000000000000000000000000000008152600401610d6790612acb565b60405180910390fd5b610d7d83838360016115d0565b8273ffffffffffffffffffffffffffffffffffffffff16610d9d82610699565b73ffffffffffffffffffffffffffffffffffffffff1614610df3576040517f08c379a0000000000000000000000000000000000000000000000000000000008152600401610dea90612a39565b60405180910390fd5b6004600082815260200190815260200160002060006101000a81549073ffffffffffffffffffffffffffffffffffffffff02191690556001600360008573ffffffffffffffffffffffffffffffffffffffff1673ffffffffffffffffffffffffffffffffffffffff168152602001908152602001600020600082825403925050819055506001600360008473ffffffffffffffffffffffffffffffffffffffff1673ffffffffffffffffffffffffffffffffffffffff16815260200190815260200160002060008282540192505081905550816002600083815260200190815260200160002060006101000a81548173ffffffffffffffffffffffffffffffffffffffff021916908373ffffffffffffffffffffffffffffffffffffffff160217905550808273ffffffffffffffffffffffffffffffffffffffff168473ffffffffffffffffffffffffffffffffffffffff167fddf252ad1be2c89b69c2b068fc378daa952ba7f163c4a11628f55a4df523b3ef60405160405180910390a4610f7f83838360016115d6565b505050565b610f8d816115dc565b50565b60006002600083815260200190815260200160002060009054906101000a900473ffffffffffffffffffffffffffffffffffffffff169050919050565b610fd5610b35565b73ffffffffffffffffffffffffffffffffffffffff16610ff36107ea565b73ffffffffffffffffffffffffffffffffffffffff1614611049576040517f08c379a000000000000000000000000000000000000000000000000000000000815260040161104090612b37565b60405180910390fd5b565b6000600760009054906101000a900473ffffffffffffffffffffffffffffffffffffffff16905081600760006101000a81548173ffffffffffffffffffffffffffffffffffffffff021916908373ffffffffffffffffffffffffffffffffffffffff1602179055508173ffffffffffffffffffffffffffffffffffffffff168173ffffffffffffffffffffffffffffffffffffffff167f8be0079c531659141344cd1fd0a4f28419497f9722a3daafe3b4186f6b6457e060405160405180910390a35050565b8173ffffffffffffffffffffffffffffffffffffffff168373ffffffffffffffffffffffffffffffffffffffff160361117f576040517f08c379a000000000000000000000000000000000000000000000000000000000815260040161117690612ba3565b60405180910390fd5b80600560008573ffffffffffffffffffffffffffffffffffffffff1673ffffffffffffffffffffffffffffffffffffffff16815260200190815260200160002060008473ffffffffffffffffffffffffffffffffffffffff1673ffffffffffffffffffffffffffffffffffffffff16815260200190815260200160002060006101000a81548160ff0219169083151502179055508173ffffffffffffffffffffffffffffffffffffffff168373ffffffffffffffffffffffffffffffffffffffff167f17307eab39ab6107e8899845ad3d59bd9653f200f220920489ca2b5937696c31836040516112709190611fba565b60405180910390a3505050565b611288848484610c8b565b6112948484848461162f565b6112d3576040517f08c379a00000000000000000000000000000000000000000000000000000000081526004016112ca90612c35565b60405180910390fd5b50505050565b60606112e482610aea565b6000600660008481526020019081526020016000208054611304906125d9565b80601f0160208091040260200160405190810160405280929190818152602001828054611330906125d9565b801561137d5780601f106113525761010080835404028352916020019161137d565b820191906000526020600020905b81548152906001019060200180831161136057829003601f168201915b50505050509050600061138e6117b6565b905060008151036113a35781925050506113e6565b6000825111156113d85780826040516020016113c0929190612c91565b604051602081830303815290604052925050506113e6565b6113e1846117cd565b925050505b919050565b611405828260405180602001604052806000815250611835565b5050565b6114128261158f565b611451576040517f08c379a000000000000000000000000000000000000000000000000000000000815260040161144890612d27565b60405180910390fd5b806006600084815260200190815260200160002090816114719190612ef3565b507ff8e1a15aba9398e019f0b49df1a4fde98ee17ae345cb5f6b5e2c27f5033e8ce7826040516114a19190612241565b60405180910390a15050565b60007f80ac58cd000000000000000000000000000000000000000000000000000000007bffffffffffffffffffffffffffffffffffffffffffffffffffffffff1916827bffffffffffffffffffffffffffffffffffffffffffffffffffffffff1916148061157857507f5b5e139f000000000000000000000000000000000000000000000000000000007bffffffffffffffffffffffffffffffffffffffffffffffffffffffff1916827bffffffffffffffffffffffffffffffffffffffffffffffffffffffff1916145b80611588575061158782611890565b5b9050919050565b60008073ffffffffffffffffffffffffffffffffffffffff166115b183610f90565b73ffffffffffffffffffffffffffffffffffffffff1614159050919050565b50505050565b50505050565b6115e5816118fa565b6000600660008381526020019081526020016000208054611605906125d9565b90501461162c5760066000828152602001908152602001600020600061162b9190611ea9565b5b50565b60006116508473ffffffffffffffffffffffffffffffffffffffff16611a48565b156117a9578373ffffffffffffffffffffffffffffffffffffffff1663150b7a02611679610b35565b8786866040518563ffffffff1660e01b815260040161169b949392919061301a565b6020604051808303816000875af19250505080156116d757506040513d601f19601f820116820180604052508101906116d4919061307b565b60015b611759573d8060008114611707576040519150601f19603f3d011682016040523d82523d6000602084013e61170c565b606091505b506000815103611751576040517f08c379a000000000000000000000000000000000000000000000000000000000815260040161174890612c35565b60405180910390fd5b805181602001fd5b63150b7a0260e01b7bffffffffffffffffffffffffffffffffffffffffffffffffffffffff1916817bffffffffffffffffffffffffffffffffffffffffffffffffffffffff1916149150506117ae565b600190505b949350505050565b606060405180602001604052806000815250905090565b60606117d882610aea565b60006117e26117b6565b90506000815111611802576040518060200160405280600081525061182d565b8061180c84611a6b565b60405160200161181d929190612c91565b6040516020818303038152906040525b915050919050565b61183f8383611b39565b61184c600084848461162f565b61188b576040517f08c379a000000000000000000000000000000000000000000000000000000000815260040161188290612c35565b60405180910390fd5b505050565b60007f01ffc9a7000000000000000000000000000000000000000000000000000000007bffffffffffffffffffffffffffffffffffffffffffffffffffffffff1916827bffffffffffffffffffffffffffffffffffffffffffffffffffffffff1916149050919050565b600061190582610699565b90506119158160008460016115d0565b61191e82610699565b90506004600083815260200190815260200160002060006101000a81549073ffffffffffffffffffffffffffffffffffffffff02191690556001600360008373ffffffffffffffffffffffffffffffffffffffff1673ffffffffffffffffffffffffffffffffffffffff168152602001908152602001600020600082825403925050819055506002600083815260200190815260200160002060006101000a81549073ffffffffffffffffffffffffffffffffffffffff021916905581600073ffffffffffffffffffffffffffffffffffffffff168273ffffffffffffffffffffffffffffffffffffffff167fddf252ad1be2c89b69c2b068fc378daa952ba7f163c4a11628f55a4df523b3ef60405160405180910390a4611a448160008460016115d6565b5050565b6000808273ffffffffffffffffffffffffffffffffffffffff163b119050919050565b606060006001611a7a84611d56565b01905060008167ffffffffffffffff811115611a9957611a986122d2565b5b6040519080825280601f01601f191660200182016040528015611acb5781602001600182028036833780820191505090505b509050600082602001820190505b600115611b2e578080600190039150507f3031323334353637383961626364656600000000000000000000000000000000600a86061a8153600a8581611b2257611b216130a8565b5b04945060008503611ad9575b819350505050919050565b600073ffffffffffffffffffffffffffffffffffffffff168273ffffffffffffffffffffffffffffffffffffffff1603611ba8576040517f08c379a0000000000000000000000000000000000000000000000000000000008152600401611b9f90613123565b60405180910390fd5b611bb18161158f565b15611bf1576040517f08c379a0000000000000000000000000000000000000000000000000000000008152600401611be89061318f565b60405180910390fd5b611bff6000838360016115d0565b611c088161158f565b15611c48576040517f08c379a0000000000000000000000000000000000000000000000000000000008152600401611c3f9061318f565b60405180910390fd5b6001600360008473ffffffffffffffffffffffffffffffffffffffff1673ffffffffffffffffffffffffffffffffffffffff16815260200190815260200160002060008282540192505081905550816002600083815260200190815260200160002060006101000a81548173ffffffffffffffffffffffffffffffffffffffff021916908373ffffffffffffffffffffffffffffffffffffffff160217905550808273ffffffffffffffffffffffffffffffffffffffff16600073ffffffffffffffffffffffffffffffffffffffff167fddf252ad1be2c89b69c2b068fc378daa952ba7f163c4a11628f55a4df523b3ef60405160405180910390a4611d526000838360016115d6565b5050565b600080600090507a184f03e93ff9f4daa797ed6e38ed64bf6a1f0100000000000000008310611db4577a184f03e93ff9f4daa797ed6e38ed64bf6a1f0100000000000000008381611daa57611da96130a8565b5b0492506040810190505b6d04ee2d6d415b85acef81000000008310611df1576d04ee2d6d415b85acef81000000008381611de757611de66130a8565b5b0492506020810190505b662386f26fc100008310611e2057662386f26fc100008381611e1657611e156130a8565b5b0492506010810190505b6305f5e1008310611e49576305f5e1008381611e3f57611e3e6130a8565b5b0492506008810190505b6127108310611e6e576127108381611e6457611e636130a8565b5b0492506004810190505b60648310611e915760648381611e8757611e866130a8565b5b0492506002810190505b600a8310611ea0576001810190505b80915050919050565b508054611eb5906125d9565b6000825580601f10611ec75750611ee6565b601f016020900490600052602060002090810190611ee59190611ee9565b5b50565b5b80821115611f02576000816000905550600101611eea565b5090565b6000604051905090565b600080fd5b600080fd5b60007fffffffff0000000000000000000000000000000000000000000000000000000082169050919050565b611f4f81611f1a565b8114611f5a57600080fd5b50565b600081359050611f6c81611f46565b92915050565b600060208284031215611f8857611f87611f10565b5b6000611f9684828501611f5d565b91505092915050565b60008115159050919050565b611fb481611f9f565b82525050565b6000602082019050611fcf6000830184611fab565b92915050565b600081519050919050565b600082825260208201905092915050565b60005b8381101561200f578082015181840152602081019050611ff4565b60008484015250505050565b6000601f19601f8301169050919050565b600061203782611fd5565b6120418185611fe0565b9350612051818560208601611ff1565b61205a8161201b565b840191505092915050565b6000602082019050818103600083015261207f818461202c565b905092915050565b6000819050919050565b61209a81612087565b81146120a557600080fd5b50565b6000813590506120b781612091565b92915050565b6000602082840312156120d3576120d2611f10565b5b60006120e1848285016120a8565b91505092915050565b600073ffffffffffffffffffffffffffffffffffffffff82169050919050565b6000612115826120ea565b9050919050565b6121258161210a565b82525050565b6000602082019050612140600083018461211c565b92915050565b61214f8161210a565b811461215a57600080fd5b50565b60008135905061216c81612146565b92915050565b6000806040838503121561218957612188611f10565b5b60006121978582860161215d565b92505060206121a8858286016120a8565b9150509250929050565b6000806000606084860312156121cb576121ca611f10565b5b60006121d98682870161215d565b93505060206121ea8682870161215d565b92505060406121fb868287016120a8565b9150509250925092565b60006020828403121561221b5761221a611f10565b5b60006122298482850161215d565b91505092915050565b61223b81612087565b82525050565b60006020820190506122566000830184612232565b92915050565b61226581611f9f565b811461227057600080fd5b50565b6000813590506122828161225c565b92915050565b6000806040838503121561229f5761229e611f10565b5b60006122ad8582860161215d565b92505060206122be85828601612273565b9150509250929050565b600080fd5b600080fd5b7f4e487b7100000000000000000000000000000000000000000000000000000000600052604160045260246000fd5b61230a8261201b565b810181811067ffffffffffffffff82111715612329576123286122d2565b5b80604052505050565b600061233c611f06565b90506123488282612301565b919050565b600067ffffffffffffffff821115612368576123676122d2565b5b6123718261201b565b9050602081019050919050565b82818337600083830152505050565b60006123a061239b8461234d565b612332565b9050828152602081018484840111156123bc576123bb6122cd565b5b6123c784828561237e565b509392505050565b600082601f8301126123e4576123e36122c8565b5b81356123f484826020860161238d565b91505092915050565b6000806000806080858703121561241757612416611f10565b5b60006124258782880161215d565b94505060206124368782880161215d565b9350506040612447878288016120a8565b925050606085013567ffffffffffffffff81111561246857612467611f15565b5b612474878288016123cf565b91505092959194509250565b600067ffffffffffffffff82111561249b5761249a6122d2565b5b6124a48261201b565b9050602081019050919050565b60006124c46124bf84612480565b612332565b9050828152602081018484840111156124e0576124df6122cd565b5b6124eb84828561237e565b509392505050565b600082601f830112612508576125076122c8565b5b81356125188482602086016124b1565b91505092915050565b60006020828403121561253757612536611f10565b5b600082013567ffffffffffffffff81111561255557612554611f15565b5b612561848285016124f3565b91505092915050565b6000806040838503121561258157612580611f10565b5b600061258f8582860161215d565b92505060206125a08582860161215d565b9150509250929050565b7f4e487b7100000000000000000000000000000000000000000000000000000000600052602260045260246000fd5b600060028204905060018216806125f157607f821691505b602082108103612604576126036125aa565b5b50919050565b7f4552433732313a20617070726f76616c20746f2063757272656e74206f776e6560008201527f7200000000000000000000000000000000000000000000000000000000000000602082015250565b6000612666602183611fe0565b91506126718261260a565b604082019050919050565b6000602082019050818103600083015261269581612659565b9050919050565b7f4552433732313a20617070726f76652063616c6c6572206973206e6f7420746f60008201527f6b656e206f776e6572206f7220617070726f76656420666f7220616c6c000000602082015250565b60006126f8603d83611fe0565b91506127038261269c565b604082019050919050565b60006020820190508181036000830152612727816126eb565b9050919050565b7f4552433732313a2063616c6c6572206973206e6f7420746f6b656e206f776e6560008201527f72206f7220617070726f76656400000000000000000000000000000000000000602082015250565b600061278a602d83611fe0565b91506127958261272e565b604082019050919050565b600060208201905081810360008301526127b98161277d565b9050919050565b7f4552433732313a20696e76616c696420746f6b656e2049440000000000000000600082015250565b60006127f6601883611fe0565b9150612801826127c0565b602082019050919050565b60006020820190508181036000830152612825816127e9565b9050919050565b7f4552433732313a2061646472657373207a65726f206973206e6f74206120766160008201527f6c6964206f776e65720000000000000000000000000000000000000000000000602082015250565b6000612888602983611fe0565b91506128938261282c565b604082019050919050565b600060208201905081810360008301526128b78161287b565b9050919050565b7f4e487b7100000000000000000000000000000000000000000000000000000000600052601160045260246000fd5b60006128f882612087565b91507fffffffffffffffffffffffffffffffffffffffffffffffffffffffffffffffff820361292a576129296128be565b5b600182019050919050565b7f4f776e61626c653a206e6577206f776e657220697320746865207a65726f206160008201527f6464726573730000000000000000000000000000000000000000000000000000602082015250565b6000612991602683611fe0565b915061299c82612935565b604082019050919050565b600060208201905081810360008301526129c081612984565b9050919050565b7f4552433732313a207472616e736665722066726f6d20696e636f72726563742060008201527f6f776e6572000000000000000000000000000000000000000000000000000000602082015250565b6000612a23602583611fe0565b9150612a2e826129c7565b604082019050919050565b60006020820190508181036000830152612a5281612a16565b9050919050565b7f4552433732313a207472616e7366657220746f20746865207a65726f2061646460008201527f7265737300000000000000000000000000000000000000000000000000000000602082015250565b6000612ab5602483611fe0565b9150612ac082612a59565b604082019050919050565b60006020820190508181036000830152612ae481612aa8565b9050919050565b7f4f776e61626c653a2063616c6c6572206973206e6f7420746865206f776e6572600082015250565b6000612b21602083611fe0565b9150612b2c82612aeb565b602082019050919050565b60006020820190508181036000830152612b5081612b14565b9050919050565b7f4552433732313a20617070726f766520746f2063616c6c657200000000000000600082015250565b6000612b8d601983611fe0565b9150612b9882612b57565b602082019050919050565b60006020820190508181036000830152612bbc81612b80565b9050919050565b7f4552433732313a207472616e7366657220746f206e6f6e20455243373231526560008201527f63656976657220696d706c656d656e7465720000000000000000000000000000602082015250565b6000612c1f603283611fe0565b9150612c2a82612bc3565b604082019050919050565b60006020820190508181036000830152612c4e81612c12565b9050919050565b600081905092915050565b6000612c6b82611fd5565b612c758185612c55565b9350612c85818560208601611ff1565b80840191505092915050565b6000612c9d8285612c60565b9150612ca98284612c60565b91508190509392505050565b7f45524337323155524953746f726167653a2055524920736574206f66206e6f6e60008201527f6578697374656e7420746f6b656e000000000000000000000000000000000000602082015250565b6000612d11602e83611fe0565b9150612d1c82612cb5565b604082019050919050565b60006020820190508181036000830152612d4081612d04565b9050919050565b60008190508160005260206000209050919050565b60006020601f8301049050919050565b600082821b905092915050565b600060088302612da97fffffffffffffffffffffffffffffffffffffffffffffffffffffffffffffffff82612d6c565b612db38683612d6c565b95508019841693508086168417925050509392505050565b6000819050919050565b6000612df0612deb612de684612087565b612dcb565b612087565b9050919050565b6000819050919050565b612e0a83612dd5565b612e1e612e1682612df7565b848454612d79565b825550505050565b600090565b612e33612e26565b612e3e818484612e01565b505050565b5b81811015612e6257612e57600082612e2b565b600181019050612e44565b5050565b601f821115612ea757612e7881612d47565b612e8184612d5c565b81016020851015612e90578190505b612ea4612e9c85612d5c565b830182612e43565b50505b505050565b600082821c905092915050565b6000612eca60001984600802612eac565b1980831691505092915050565b6000612ee38383612eb9565b9150826002028217905092915050565b612efc82611fd5565b67ffffffffffffffff811115612f1557612f146122d2565b5b612f1f82546125d9565b612f2a828285612e66565b600060209050601f831160018114612f5d5760008415612f4b578287015190505b612f558582612ed7565b865550612fbd565b601f198416612f6b86612d47565b60005b82811015612f9357848901518255600182019150602085019450602081019050612f6e565b86831015612fb05784890151612fac601f891682612eb9565b8355505b6001600288020188555050505b505050505050565b600081519050919050565b600082825260208201905092915050565b6000612fec82612fc5565b612ff68185612fd0565b9350613006818560208601611ff1565b61300f8161201b565b840191505092915050565b600060808201905061302f600083018761211c565b61303c602083018661211c565b6130496040830185612232565b818103606083015261305b8184612fe1565b905095945050505050565b60008151905061307581611f46565b92915050565b60006020828403121561309157613090611f10565b5b600061309f84828501613066565b91505092915050565b7f4e487b7100000000000000000000000000000000000000000000000000000000600052601260045260246000fd5b7f4552433732313a206d696e7420746f20746865207a65726f2061646472657373600082015250565b600061310d602083611fe0565b9150613118826130d7565b602082019050919050565b6000602082019050818103600083015261313c81613100565b9050919050565b7f4552433732313a20746f6b656e20616c7265616479206d696e74656400000000600082015250565b6000613179601c83611fe0565b915061318482613143565b602082019050919050565b600060208201905081810360008301526131a88161316c565b905091905056fea2646970667358221220dffab3225566c648c30b8b8e173a3c7c79cb19a9bf812c7fa7fca7be42cdc4e464736f6c63430008120033",
  "deployedBytecode": "0x608060405234801561001057600080fd5b50600436106101215760003560e01c8063715018a6116100ad578063b88d4fde11610071578063b88d4fde146102f4578063c87b56dd14610310578063d85d3d2714610340578063e985e9c514610370578063f2fde38b146103a057610121565b8063715018a6146102745780638da5cb5b1461027e57806395d89b411461029c5780639f181b5e146102ba578063a22cb465146102d857610121565b806323b872dd116100f457806323b872dd146101c057806342842e0e146101dc57806342966c68146101f85780636352211e1461021457806370a082311461024457610121565b806301ffc9a71461012657806306fdde0314610156578063081812fc14610174578063095ea7b3146101a4575b600080fd5b610140600480360381019061013b91906123c5565b6103bc565b60405161014d91906127c6565b60405180910390f35b61015e6103ce565b60405161016b91906127e1565b60405180910390f35b61018e60048036038101906101899190612458565b610460565b60405161019b919061275f565b60405180910390f35b6101be60048036038101906101b99190612389565b6104a6565b005b6101da60048036038101906101d59190612283565b6105be565b005b6101f660048036038101906101f19190612283565b61061e565b005b610212600480360381019061020d9190612458565b61063e565b005b61022e60048036038101906102299190612458565b61069a565b60405161023b919061275f565b60405180910390f35b61025e6004803603810190610259919061221e565b610721565b60405161026b91906129c3565b60405180910390f35b61027c6107d9565b005b6102866107ed565b604051610293919061275f565b60405180910390f35b6102a4610817565b6040516102b191906127e1565b60405180910390f35b6102c26108a9565b6040516102cf91906129c3565b60405180910390f35b6102f260048036038101906102ed919061234d565b6108af565b005b61030e600480360381019061030991906122d2565b6108c5565b005b61032a60048036038101906103259190612458565b610927565b60405161033791906127e1565b60405180910390f35b61035a60048036038101906103559190612417565b610939565b60405161036791906129c3565b60405180910390f35b61038a60048036038101906103859190612247565b610975565b60405161039791906127c6565b60405180910390f35b6103ba60048036038101906103b5919061221e565b610a09565b005b60006103c782610a8d565b9050919050565b6060600080546103dd90612b5e565b80601f016020809104026020016040519081016040528092919081815260200182805461040990612b5e565b80156104565780601f1061042b57610100808354040283529160200191610456565b820191906000526020600020905b81548152906001019060200180831161043957829003601f168201915b5050505050905090565b600061046b82610aee565b6004600083815260200190815260200160002060009054906101000a900473ffffffffffffffffffffffffffffffffffffffff169050919050565b60006104b18261069a565b90508073ffffffffffffffffffffffffffffffffffffffff168373ffffffffffffffffffffffffffffffffffffffff161415610522576040517f08c379a000000000000000000000000000000000000000000000000000000000815260040161051990612983565b60405180910390fd5b8073ffffffffffffffffffffffffffffffffffffffff16610541610b39565b73ffffffffffffffffffffffffffffffffffffffff161480610570575061056f8161056a610b39565b610975565b5b6105af576040517f08c379a00000000000000000000000000000000000000000000000000000000081526004016105a6906129a3565b60405180910390fd5b6105b98383610b41565b505050565b6105cf6105c9610b39565b82610bfa565b61060e576040517f08c379a000000000000000000000000000000000000000000000000000000000815260040161060590612803565b60405180910390fd5b610619838383610c8f565b505050565b610639838383604051806020016040528060008152506108c5565b505050565b61064f610649610b39565b82610bfa565b61068e576040517f08c379a000000000000000000000000000000000000000000000000000000000815260040161068590612803565b60405180910390fd5b61069781610f89565b50565b6000806106a683610f95565b9050600073ffffffffffffffffffffffffffffffffffffffff168173ffffffffffffffffffffffffffffffffffffffff161415610718576040517f08c379a000000000000000000000000000000000000000000000000000000000815260040161070f90612963565b60405180910390fd5b80915050919050565b60008073ffffffffffffffffffffffffffffffffffffffff168273ffffffffffffffffffffffffffffffffffffffff161415610792576040517f08c379a0000000000000000000000000000000000000000000000000000000008152600401610789906128e3565b60405180910390fd5b600360008373ffffffffffffffffffffffffffffffffffffffff1673ffffffffffffffffffffffffffffffffffffffff168152602001908152602001600020549050919050565b6107e1610fd2565b6107eb6000611050565b565b6000600760009054906101000a900473ffffffffffffffffffffffffffffffffffffffff16905090565b60606001805461082690612b5e565b80601f016020809104026020016040519081016040528092919081815260200182805461085290612b5e565b801561089f5780601f106108745761010080835404028352916020019161089f565b820191906000526020600020905b81548152906001019060200180831161088257829003601f168201915b5050505050905090565b60085481565b6108c16108ba610b39565b8383611116565b5050565b6108d66108d0610b39565b83610bfa565b610915576040517f08c379a000000000000000000000000000000000000000000000000000000000815260040161090c90612803565b60405180910390fd5b61092184848484611283565b50505050565b6060610932826112df565b9050919050565b60006008600081548092919061094e90612bc1565b919050555061095f336008546113f2565b61096b60085483611410565b6008549050919050565b6000600560008473ffffffffffffffffffffffffffffffffffffffff1673ffffffffffffffffffffffffffffffffffffffff16815260200190815260200160002060008373ffffffffffffffffffffffffffffffffffffffff1673ffffffffffffffffffffffffffffffffffffffff16815260200190815260200160002060009054906101000a900460ff16905092915050565b610a11610fd2565b600073ffffffffffffffffffffffffffffffffffffffff168173ffffffffffffffffffffffffffffffffffffffff161415610a81576040517f08c379a0000000000000000000000000000000000000000000000000000000008152600401610a7890612843565b60405180910390fd5b610a8a81611050565b50565b6000634906490660e01b7bffffffffffffffffffffffffffffffffffffffffffffffffffffffff1916827bffffffffffffffffffffffffffffffffffffffffffffffffffffffff19161480610ae75750610ae6826114bb565b5b9050919050565b610af78161159d565b610b36576040517f08c379a0000000000000000000000000000000000000000000000000000000008152600401610b2d90612963565b60405180910390fd5b50565b600033905090565b816004600083815260200190815260200160002060006101000a81548173ffffffffffffffffffffffffffffffffffffffff021916908373ffffffffffffffffffffffffffffffffffffffff160217905550808273ffffffffffffffffffffffffffffffffffffffff16610bb48361069a565b73ffffffffffffffffffffffffffffffffffffffff167f8c5be1e5ebec7d5bd14f71427d1e84f3dd0314c0f7b2291e5b200ac8c7c3b92560405160405180910390a45050565b600080610c068361069a565b90508073ffffffffffffffffffffffffffffffffffffffff168473ffffffffffffffffffffffffffffffffffffffff161480610c485750610c478185610975565b5b80610c8657508373ffffffffffffffffffffffffffffffffffffffff16610c6e84610460565b73ffffffffffffffffffffffffffffffffffffffff16145b91505092915050565b8273ffffffffffffffffffffffffffffffffffffffff16610caf8261069a565b73ffffffffffffffffffffffffffffffffffffffff1614610d05576040517f08c379a0000000000000000000000000000000000000000000000000000000008152600401610cfc90612863565b60405180910390fd5b600073ffffffffffffffffffffffffffffffffffffffff168273ffffffffffffffffffffffffffffffffffffffff161415610d75576040517f08c379a0000000000000000000000000000000000000000000000000000000008152600401610d6c906128a3565b60405180910390fd5b610d8283838360016115de565b8273ffffffffffffffffffffffffffffffffffffffff16610da28261069a565b73ffffffffffffffffffffffffffffffffffffffff1614610df8576040517f08c379a0000000000000000000000000000000000000000000000000000000008152600401610def90612863565b60405180910390fd5b6004600082815260200190815260200160002060006101000a81549073ffffffffffffffffffffffffffffffffffffffff02191690556001600360008573ffffffffffffffffffffffffffffffffffffffff1673ffffffffffffffffffffffffffffffffffffffff168152602001908152602001600020600082825403925050819055506001600360008473ffffffffffffffffffffffffffffffffffffffff1673ffffffffffffffffffffffffffffffffffffffff16815260200190815260200160002060008282540192505081905550816002600083815260200190815260200160002060006101000a81548173ffffffffffffffffffffffffffffffffffffffff021916908373ffffffffffffffffffffffffffffffffffffffff160217905550808273ffffffffffffffffffffffffffffffffffffffff168473ffffffffffffffffffffffffffffffffffffffff167fddf252ad1be2c89b69c2b068fc378daa952ba7f163c4a11628f55a4df523b3ef60405160405180910390a4610f8483838360016115e4565b505050565b610f92816115ea565b50565b60006002600083815260200190815260200160002060009054906101000a900473ffffffffffffffffffffffffffffffffffffffff169050919050565b610fda610b39565b73ffffffffffffffffffffffffffffffffffffffff16610ff86107ed565b73ffffffffffffffffffffffffffffffffffffffff161461104e576040517f08c379a000000000000000000000000000000000000000000000000000000000815260040161104590612943565b60405180910390fd5b565b6000600760009054906101000a900473ffffffffffffffffffffffffffffffffffffffff16905081600760006101000a81548173ffffffffffffffffffffffffffffffffffffffff021916908373ffffffffffffffffffffffffffffffffffffffff1602179055508173ffffffffffffffffffffffffffffffffffffffff168173ffffffffffffffffffffffffffffffffffffffff167f8be0079c531659141344cd1fd0a4f28419497f9722a3daafe3b4186f6b6457e060405160405180910390a35050565b8173ffffffffffffffffffffffffffffffffffffffff168373ffffffffffffffffffffffffffffffffffffffff161415611185576040517f08c379a000000000000000000000000000000000000000000000000000000000815260040161117c906128c3565b60405180910390fd5b80600560008573ffffffffffffffffffffffffffffffffffffffff1673ffffffffffffffffffffffffffffffffffffffff16815260200190815260200160002060008473ffffffffffffffffffffffffffffffffffffffff1673ffffffffffffffffffffffffffffffffffffffff16815260200190815260200160002060006101000a81548160ff0219169083151502179055508173ffffffffffffffffffffffffffffffffffffffff168373ffffffffffffffffffffffffffffffffffffffff167f17307eab39ab6107e8899845ad3d59bd9653f200f220920489ca2b5937696c318360405161127691906127c6565b60405180910390a3505050565b61128e848484610c8f565b61129a8484848461163d565b6112d9576040517f08c379a00000000000000000000000000000000000000000000000000000000081526004016112d090612823565b60405180910390fd5b50505050565b60606112ea82610aee565b600060066000848152602001908152602001600020805461130a90612b5e565b80601f016020809104026020016040519081016040528092919081815260200182805461133690612b5e565b80156113835780601f1061135857610100808354040283529160200191611383565b820191906000526020600020905b81548152906001019060200180831161136657829003601f168201915b5050505050905060006113946117d4565b90506000815114156113aa5781925050506113ed565b6000825111156113df5780826040516020016113c792919061273b565b604051602081830303815290604052925050506113ed565b6113e8846117eb565b925050505b919050565b61140c828260405180602001604052806000815250611853565b5050565b6114198261159d565b611458576040517f08c379a000000000000000000000000000000000000000000000000000000000815260040161144f90612903565b60405180910390fd5b8060066000848152602001908152602001600020908051906020019061147f929190612002565b507ff8e1a15aba9398e019f0b49df1a4fde98ee17ae345cb5f6b5e2c27f5033e8ce7826040516114af91906129c3565b60405180910390a15050565b60007f80ac58cd000000000000000000000000000000000000000000000000000000007bffffffffffffffffffffffffffffffffffffffffffffffffffffffff1916827bffffffffffffffffffffffffffffffffffffffffffffffffffffffff1916148061158657507f5b5e139f000000000000000000000000000000000000000000000000000000007bffffffffffffffffffffffffffffffffffffffffffffffffffffffff1916827bffffffffffffffffffffffffffffffffffffffffffffffffffffffff1916145b806115965750611595826118ae565b5b9050919050565b60008073ffffffffffffffffffffffffffffffffffffffff166115bf83610f95565b73ffffffffffffffffffffffffffffffffffffffff1614159050919050565b50505050565b50505050565b6115f381611918565b600060066000838152602001908152602001600020805461161390612b5e565b90501461163a576006600082815260200190815260200160002060006116399190612088565b5b50565b600061165e8473ffffffffffffffffffffffffffffffffffffffff16611a66565b156117c7578373ffffffffffffffffffffffffffffffffffffffff1663150b7a02611687610b39565b8786866040518563ffffffff1660e01b81526004016116a9949392919061277a565b602060405180830381600087803b1580156116c357600080fd5b505af19250505080156116f457506040513d601f19601f820116820180604052508101906116f191906123ee565b60015b611777573d8060008114611724576040519150601f19603f3d011682016040523d82523d6000602084013e611729565b606091505b5060008151141561176f576040517f08c379a000000000000000000000000000000000000000000000000000000000815260040161176690612823565b60405180910390fd5b805181602001fd5b63150b7a0260e01b7bffffffffffffffffffffffffffffffffffffffffffffffffffffffff1916817bffffffffffffffffffffffffffffffffffffffffffffffffffffffff1916149150506117cc565b600190505b949350505050565b606060405180602001604052806000815250905090565b60606117f682610aee565b60006118006117d4565b90506000815111611820576040518060200160405280600081525061184b565b8061182a84611a89565b60405160200161183b92919061273b565b6040516020818303038152906040525b915050919050565b61185d8383611bad565b61186a600084848461163d565b6118a9576040517f08c379a00000000000000000000000000000000000000000000000000000000081526004016118a090612823565b60405180910390fd5b505050565b60007f01ffc9a7000000000000000000000000000000000000000000000000000000007bffffffffffffffffffffffffffffffffffffffffffffffffffffffff1916827bffffffffffffffffffffffffffffffffffffffffffffffffffffffff1916149050919050565b60006119238261069a565b90506119338160008460016115de565b61193c8261069a565b90506004600083815260200190815260200160002060006101000a81549073ffffffffffffffffffffffffffffffffffffffff02191690556001600360008373ffffffffffffffffffffffffffffffffffffffff1673ffffffffffffffffffffffffffffffffffffffff168152602001908152602001600020600082825403925050819055506002600083815260200190815260200160002060006101000a81549073ffffffffffffffffffffffffffffffffffffffff021916905581600073ffffffffffffffffffffffffffffffffffffffff168273ffffffffffffffffffffffffffffffffffffffff167fddf252ad1be2c89b69c2b068fc378daa952ba7f163c4a11628f55a4df523b3ef60405160405180910390a4611a628160008460016115e4565b5050565b6000808273ffffffffffffffffffffffffffffffffffffffff163b119050919050565b606060006001611a9884611dcb565b01905060008167ffffffffffffffff811115611add577f4e487b7100000000000000000000000000000000000000000000000000000000600052604160045260246000fd5b6040519080825280601f01601f191660200182016040528015611b0f5781602001600182028036833780820191505090505b509050600082602001820190505b600115611ba2578080600190039150507f3031323334353637383961626364656600000000000000000000000000000000600a86061a8153600a8581611b8c577f4e487b7100000000000000000000000000000000000000000000000000000000600052601260045260246000fd5b0494506000851415611b9d57611ba2565b611b1d565b819350505050919050565b600073ffffffffffffffffffffffffffffffffffffffff168273ffffffffffffffffffffffffffffffffffffffff161415611c1d576040517f08c379a0000000000000000000000000000000000000000000000000000000008152600401611c1490612923565b60405180910390fd5b611c268161159d565b15611c66576040517f08c379a0000000000000000000000000000000000000000000000000000000008152600401611c5d90612883565b60405180910390fd5b611c746000838360016115de565b611c7d8161159d565b15611cbd576040517f08c379a0000000000000000000000000000000000000000000000000000000008152600401611cb490612883565b60405180910390fd5b6001600360008473ffffffffffffffffffffffffffffffffffffffff1673ffffffffffffffffffffffffffffffffffffffff16815260200190815260200160002060008282540192505081905550816002600083815260200190815260200160002060006101000a81548173ffffffffffffffffffffffffffffffffffffffff021916908373ffffffffffffffffffffffffffffffffffffffff160217905550808273ffffffffffffffffffffffffffffffffffffffff16600073ffffffffffffffffffffffffffffffffffffffff167fddf252ad1be2c89b69c2b068fc378daa952ba7f163c4a11628f55a4df523b3ef60405160405180910390a4611dc76000838360016115e4565b5050565b600080600090507a184f03e93ff9f4daa797ed6e38ed64bf6a1f0100000000000000008310611e4f577a184f03e93ff9f4daa797ed6e38ed64bf6a1f0100000000000000008381611e45577f4e487b7100000000000000000000000000000000000000000000000000000000600052601260045260246000fd5b0492506040810190505b6d04ee2d6d415b85acef81000000008310611eb2576d04ee2d6d415b85acef81000000008381611ea8577f4e487b7100000000000000000000000000000000000000000000000000000000600052601260045260246000fd5b0492506020810190505b662386f26fc100008310611f0757662386f26fc100008381611efd577f4e487b7100000000000000000000000000000000000000000000000000000000600052601260045260246000fd5b0492506010810190505b6305f5e1008310611f56576305f5e1008381611f4c577f4e487b7100000000000000000000000000000000000000000000000000000000600052601260045260246000fd5b0492506008810190505b6127108310611fa1576127108381611f97577f4e487b7100000000000000000000000000000000000000000000000000000000600052601260045260246000fd5b0492506004810190505b60648310611fea5760648381611fe0577f4e487b7100000000000000000000000000000000000000000000000000000000600052601260045260246000fd5b0492506002810190505b600a8310611ff9576001810190505b80915050919050565b82805461200e90612b5e565b90600052602060002090601f0160209004810192826120305760008555612077565b82601f1061204957805160ff1916838001178555612077565b82800160010185558215612077579182015b8281111561207657825182559160200191906001019061205b565b5b50905061208491906120c8565b5090565b50805461209490612b5e565b6000825580601f106120a657506120c5565b601f0160209004906000526020600020908101906120c491906120c8565b5b50565b5b808211156120e15760008160009055506001016120c9565b5090565b60006120f86120f384612a03565b6129de565b90508281526020810184848401111561211057600080fd5b61211b848285612b1c565b509392505050565b600061213661213184612a34565b6129de565b90508281526020810184848401111561214e57600080fd5b612159848285612b1c565b509392505050565b6000813590506121708161303c565b92915050565b60008135905061218581613053565b92915050565b60008135905061219a8161306a565b92915050565b6000815190506121af8161306a565b92915050565b600082601f8301126121c657600080fd5b81356121d68482602086016120e5565b91505092915050565b600082601f8301126121f057600080fd5b8135612200848260208601612123565b91505092915050565b60008135905061221881613081565b92915050565b60006020828403121561223057600080fd5b600061223e84828501612161565b91505092915050565b6000806040838503121561225a57600080fd5b600061226885828601612161565b925050602061227985828601612161565b9150509250929050565b60008060006060848603121561229857600080fd5b60006122a686828701612161565b93505060206122b786828701612161565b92505060406122c886828701612209565b9150509250925092565b600080600080608085870312156122e857600080fd5b60006122f687828801612161565b945050602061230787828801612161565b935050604061231887828801612209565b925050606085013567ffffffffffffffff81111561233557600080fd5b612341878288016121b5565b91505092959194509250565b6000806040838503121561236057600080fd5b600061236e85828601612161565b925050602061237f85828601612176565b9150509250929050565b6000806040838503121561239c57600080fd5b60006123aa85828601612161565b92505060206123bb85828601612209565b9150509250929050565b6000602082840312156123d757600080fd5b60006123e58482850161218b565b91505092915050565b60006020828403121561240057600080fd5b600061240e848285016121a0565b91505092915050565b60006020828403121561242957600080fd5b600082013567ffffffffffffffff81111561244357600080fd5b61244f848285016121df565b91505092915050565b60006020828403121561246a57600080fd5b600061247884828501612209565b91505092915050565b61248a81612aa8565b82525050565b61249981612aba565b82525050565b60006124aa82612a65565b6124b48185612a7b565b93506124c4818560208601612b2b565b6124cd81612c97565b840191505092915050565b60006124e382612a70565b6124ed8185612a8c565b93506124fd818560208601612b2b565b61250681612c97565b840191505092915050565b600061251c82612a70565b6125268185612a9d565b9350612536818560208601612b2b565b80840191505092915050565b600061254f602d83612a8c565b915061255a82612ca8565b604082019050919050565b6000612572603283612a8c565b915061257d82612cf7565b604082019050919050565b6000612595602683612a8c565b91506125a082612d46565b604082019050919050565b60006125b8602583612a8c565b91506125c382612d95565b604082019050919050565b60006125db601c83612a8c565b91506125e682612de4565b602082019050919050565b60006125fe602483612a8c565b915061260982612e0d565b604082019050919050565b6000612621601983612a8c565b915061262c82612e5c565b602082019050919050565b6000612644602983612a8c565b915061264f82612e85565b604082019050919050565b6000612667602e83612a8c565b915061267282612ed4565b604082019050919050565b600061268a602083612a8c565b915061269582612f23565b602082019050919050565b60006126ad602083612a8c565b91506126b882612f4c565b602082019050919050565b60006126d0601883612a8c565b91506126db82612f75565b602082019050919050565b60006126f3602183612a8c565b91506126fe82612f9e565b604082019050919050565b6000612716603d83612a8c565b915061272182612fed565b604082019050919050565b61273581612b12565b82525050565b60006127478285612511565b91506127538284612511565b91508190509392505050565b60006020820190506127746000830184612481565b92915050565b600060808201905061278f6000830187612481565b61279c6020830186612481565b6127a9604083018561272c565b81810360608301526127bb818461249f565b905095945050505050565b60006020820190506127db6000830184612490565b92915050565b600060208201905081810360008301526127fb81846124d8565b905092915050565b6000602082019050818103600083015261281c81612542565b9050919050565b6000602082019050818103600083015261283c81612565565b9050919050565b6000602082019050818103600083015261285c81612588565b9050919050565b6000602082019050818103600083015261287c816125ab565b9050919050565b6000602082019050818103600083015261289c816125ce565b9050919050565b600060208201905081810360008301526128bc816125f1565b9050919050565b600060208201905081810360008301526128dc81612614565b9050919050565b600060208201905081810360008301526128fc81612637565b9050919050565b6000602082019050818103600083015261291c8161265a565b9050919050565b6000602082019050818103600083015261293c8161267d565b9050919050565b6000602082019050818103600083015261295c816126a0565b9050919050565b6000602082019050818103600083015261297c816126c3565b9050919050565b6000602082019050818103600083015261299c816126e6565b9050919050565b600060208201905081810360008301526129bc81612709565b9050919050565b60006020820190506129d8600083018461272c565b92915050565b60006129e86129f9565b90506129f48282612b90565b919050565b6000604051905090565b600067ffffffffffffffff821115612a1e57612a1d612c68565b5b612a2782612c97565b9050602081019050919050565b600067ffffffffffffffff821115612a4f57612a4e612c68565b5b612a5882612c97565b9050602081019050919050565b600081519050919050565b600081519050919050565b600082825260208201905092915050565b600082825260208201905092915050565b600081905092915050565b6000612ab382612af2565b9050919050565b60008115159050919050565b60007fffffffff0000000000000000000000000000000000000000000000000000000082169050919050565b600073ffffffffffffffffffffffffffffffffffffffff82169050919050565b6000819050919050565b82818337600083830152505050565b60005b83811015612b49578082015181840152602081019050612b2e565b83811115612b58576000848401525b50505050565b60006002820490506001821680612b7657607f821691505b60208210811415612b8a57612b89612c39565b5b50919050565b612b9982612c97565b810181811067ffffffffffffffff82111715612bb857612bb7612c68565b5b80604052505050565b6000612bcc82612b12565b91507fffffffffffffffffffffffffffffffffffffffffffffffffffffffffffffffff821415612bff57612bfe612c0a565b5b600182019050919050565b7f4e487b7100000000000000000000000000000000000000000000000000000000600052601160045260246000fd5b7f4e487b7100000000000000000000000000000000000000000000000000000000600052602260045260246000fd5b7f4e487b7100000000000000000000000000000000000000000000000000000000600052604160045260246000fd5b6000601f19601f8301169050919050565b7f4552433732313a2063616c6c6572206973206e6f7420746f6b656e206f776e6560008201527f72206f7220617070726f76656400000000000000000000000000000000000000602082015250565b7f4552433732313a207472616e7366657220746f206e6f6e20455243373231526560008201527f63656976657220696d706c656d656e7465720000000000000000000000000000602082015250565b7f4f776e61626c653a206e6577206f776e657220697320746865207a65726f206160008201527f6464726573730000000000000000000000000000000000000000000000000000602082015250565b7f4552433732313a207472616e736665722066726f6d20696e636f72726563742060008201527f6f776e6572000000000000000000000000000000000000000000000000000000602082015250565b7f4552433732313a20746f6b656e20616c7265616479206d696e74656400000000600082015250565b7f4552433732313a207472616e7366657220746f20746865207a65726f2061646460008201527f7265737300000000000000000000000000000000000000000000000000000000602082015250565b7f4552433732313a20617070726f766520746f2063616c6c657200000000000000600082015250565b7f4552433732313a2061646472657373207a65726f206973206e6f74206120766160008201527f6c6964206f776e65720000000000000000000000000000000000000000000000602082015250565b7f45524337323155524953746f726167653a2055524920736574206f66206e6f6e60008201527f6578697374656e7420746f6b656e000000000000000000000000000000000000602082015250565b7f4552433732313a206d696e7420746f20746865207a65726f2061646472657373600082015250565b7f4f776e61626c653a2063616c6c6572206973206e6f7420746865206f776e6572600082015250565b7f4552433732313a20696e76616c696420746f6b656e2049440000000000000000600082015250565b7f4552433732313a20617070726f76616c20746f2063757272656e74206f776e6560008201527f7200000000000000000000000000000000000000000000000000000000000000602082015250565b7f4552433732313a20617070726f76652063616c6c6572206973206e6f7420746f60008201527f6b656e206f776e6572206f7220617070726f76656420666f7220616c6c000000602082015250565b61304581612aa8565b811461305057600080fd5b50565b61305c81612aba565b811461306757600080fd5b50565b61307381612ac6565b811461307e57600080fd5b50565b61308a81612b12565b811461309557600080fd5b5056fea2646970667358221220dba66f07bfd36b6a72e96826b3cd0ee4a51ceb072df2f80dc9ed20cdf2af03d364736f6c63430008040033",
  "linkReferences": {},
  "deployedLinkReferences": {}
}