{
  "_format": "hh-sol-artifact-1",
  "contractName": "Marketplace",
  "sourceName": "src/backend/contracts/Marketplace.sol",
  "abi": [
    {
      "inputs": [
        {
          "internalType": "uint256",
          "name": "_feePercent",
          "type": "uint256"
        }
      ],
      "stateMutability": "nonpayable",
      "type": "constructor"
    },
    {
      "anonymous": false,
      "inputs": [
        {
          "indexed": false,
          "internalType": "uint256",
          "name": "itemId",
          "type": "uint256"
        },
        {
          "indexed": true,
          "internalType": "address",
          "name": "nft",
          "type": "address"
        },
        {
          "indexed": false,
          "internalType": "uint256",
          "name": "tokenId",
          "type": "uint256"
        },
        {
          "indexed": false,
          "internalType": "uint256",
          "name": "price",
          "type": "uint256"
        },
        {
          "indexed": true,
          "internalType": "address",
          "name": "seller",
          "type": "address"
        },
        {
          "indexed": true,
          "internalType": "address",
          "name": "buyer",
          "type": "address"
        }
      ],
      "name": "Bought",
      "type": "event"
    },
    {
      "anonymous": false,
      "inputs": [
        {
          "indexed": false,
          "internalType": "uint256",
          "name": "itemId",
          "type": "uint256"
        },
        {
          "indexed": true,
          "internalType": "address",
          "name": "nft",
          "type": "address"
        },
        {
          "indexed": false,
          "internalType": "uint256",
          "name": "tokenId",
          "type": "uint256"
        },
        {
          "indexed": false,
          "internalType": "uint256",
          "name": "price",
          "type": "uint256"
        },
        {
          "indexed": true,
          "internalType": "address",
          "name": "seller",
          "type": "address"
        }
      ],
      "name": "Offered",
      "type": "event"
    },
    {
      "inputs": [],
      "name": "feeAccount",
      "outputs": [
        {
          "internalType": "address payable",
          "name": "",
          "type": "address"
        }
      ],
      "stateMutability": "view",
      "type": "function"
    },
    {
      "inputs": [],
      "name": "feePercent",
      "outputs": [
        {
          "internalType": "uint256",
          "name": "",
          "type": "uint256"
        }
      ],
      "stateMutability": "view",
      "type": "function"
    },
    {
      "inputs": [
        {
          "internalType": "uint256",
          "name": "_itemId",
          "type": "uint256"
        }
      ],
      "name": "getTotalPrice",
      "outputs": [
        {
          "internalType": "uint256",
          "name": "",
          "type": "uint256"
        }
      ],
      "stateMutability": "view",
      "type": "function"
    },
    {
      "inputs": [],
      "name": "itemCount",
      "outputs": [
        {
          "internalType": "uint256",
          "name": "",
          "type": "uint256"
        }
      ],
      "stateMutability": "view",
      "type": "function"
    },
    {
      "inputs": [
        {
          "internalType": "uint256",
          "name": "",
          "type": "uint256"
        }
      ],
      "name": "items",
      "outputs": [
        {
          "internalType": "uint256",
          "name": "itemId",
          "type": "uint256"
        },
        {
          "internalType": "contract IERC721",
          "name": "nft",
          "type": "address"
        },
        {
          "internalType": "uint256",
          "name": "tokenId",
          "type": "uint256"
        },
        {
          "internalType": "uint256",
          "name": "price",
          "type": "uint256"
        },
        {
          "internalType": "address payable",
          "name": "seller",
          "type": "address"
        },
        {
          "internalType": "bool",
          "name": "sold",
          "type": "bool"
        }
      ],
      "stateMutability": "view",
      "type": "function"
    },
    {
      "inputs": [
        {
          "internalType": "contract IERC721",
          "name": "_nft",
          "type": "address"
        },
        {
          "internalType": "uint256",
          "name": "_tokenId",
          "type": "uint256"
        },
        {
          "internalType": "uint256",
          "name": "_price",
          "type": "uint256"
        }
      ],
      "name": "makeItem",
      "outputs": [],
      "stateMutability": "nonpayable",
      "type": "function"
    },
    {
      "inputs": [
        {
          "internalType": "contract IERC721",
          "name": "_nft",
          "type": "address"
        },
        {
          "internalType": "uint256",
          "name": "_tokenId",
          "type": "uint256"
        },
        {
          "internalType": "uint256",
          "name": "_price",
          "type": "uint256"
        }
      ],
      "name": "offerTokenForSale",
      "outputs": [],
      "stateMutability": "nonpayable",
      "type": "function"
    },
    {
      "inputs": [
        {
          "internalType": "uint256",
          "name": "_itemId",
          "type": "uint256"
        }
      ],
      "name": "purchaseItem",
      "outputs": [],
      "stateMutability": "payable",
      "type": "function"
    }
  ],
  "bytecode": "0x60c06040523480156200001157600080fd5b50604051620016173803806200161783398181016040528101906200003791906200009c565b60016000819055503373ffffffffffffffffffffffffffffffffffffffff1660808173ffffffffffffffffffffffffffffffffffffffff1660601b815250508060a0818152505050620000ec565b6000815190506200009681620000d2565b92915050565b600060208284031215620000af57600080fd5b6000620000bf8482850162000085565b91505092915050565b6000819050919050565b620000dd81620000c8565b8114620000e957600080fd5b50565b60805160601c60a0516114f4620001236000396000818161059c015261064d0152600081816101f0015261082d01526114f46000f3fe60806040526004361061007b5760003560e01c8063bfb231d21161004e578063bfb231d21461012a578063ca7dd3751461016c578063d38ea5bf146101a9578063fa00afc7146101c55761007b565b806365e17c9d146100805780636bfb0d01146100ab57806379654b36146100d65780637fd6f15c146100ff575b600080fd5b34801561008c57600080fd5b506100956101ee565b6040516100a29190610f15565b60405180910390f35b3480156100b757600080fd5b506100c0610212565b6040516100cd9190611027565b60405180910390f35b3480156100e257600080fd5b506100fd60048036038101906100f89190610d80565b610218565b005b34801561010b57600080fd5b5061011461059a565b6040516101219190611027565b60405180910390f35b34801561013657600080fd5b50610151600480360381019061014c9190610dcf565b6105be565b60405161016396959493929190611042565b60405180910390f35b34801561017857600080fd5b50610193600480360381019061018e9190610dcf565b610647565b6040516101a09190611027565b60405180910390f35b6101c360048036038101906101be9190610dcf565b6106aa565b005b3480156101d157600080fd5b506101ec60048036038101906101e79190610d80565b610a32565b005b7f000000000000000000000000000000000000000000000000000000000000000081565b60015481565b610220610cbe565b60008111610263576040517f08c379a000000000000000000000000000000000000000000000000000000000815260040161025a90610f87565b60405180910390fd5b3373ffffffffffffffffffffffffffffffffffffffff168373ffffffffffffffffffffffffffffffffffffffff16636352211e846040518263ffffffff1660e01b81526004016102b39190611027565b60206040518083038186803b1580156102cb57600080fd5b505afa1580156102df573d6000803e3d6000fd5b505050506040513d601f19601f820116820180604052508101906103039190610d57565b73ffffffffffffffffffffffffffffffffffffffff1614610359576040517f08c379a000000000000000000000000000000000000000000000000000000000815260040161035090610fe7565b60405180910390fd5b8273ffffffffffffffffffffffffffffffffffffffff166323b872dd3330856040518463ffffffff1660e01b815260040161039693929190610f30565b600060405180830381600087803b1580156103b057600080fd5b505af11580156103c4573d6000803e3d6000fd5b50505050600160008154809291906103db90611290565b91905055506040518060c0016040528060015481526020018473ffffffffffffffffffffffffffffffffffffffff1681526020018381526020018281526020013373ffffffffffffffffffffffffffffffffffffffff168152602001600015158152506002600060015481526020019081526020016000206000820151816000015560208201518160010160006101000a81548173ffffffffffffffffffffffffffffffffffffffff021916908373ffffffffffffffffffffffffffffffffffffffff160217905550604082015181600201556060820151816003015560808201518160040160006101000a81548173ffffffffffffffffffffffffffffffffffffffff021916908373ffffffffffffffffffffffffffffffffffffffff16021790555060a08201518160040160146101000a81548160ff0219169083151502179055509050503373ffffffffffffffffffffffffffffffffffffffff168373ffffffffffffffffffffffffffffffffffffffff167f655a0cf9c8db81512be9a76dc1c5ae5380b8816ce6ad659cd61b715e2999d59a6001548585604051610585939291906110a3565b60405180910390a3610595610d0e565b505050565b7f000000000000000000000000000000000000000000000000000000000000000081565b60026020528060005260406000206000915090508060000154908060010160009054906101000a900473ffffffffffffffffffffffffffffffffffffffff16908060020154908060030154908060040160009054906101000a900473ffffffffffffffffffffffffffffffffffffffff16908060040160149054906101000a900460ff16905086565b600060647f0000000000000000000000000000000000000000000000000000000000000000606461067891906110eb565b60026000858152602001908152602001600020600301546106999190611172565b6106a39190611141565b9050919050565b6106b2610cbe565b60006106bd82610647565b905060006002600084815260200190815260200160002090506000831180156106e857506001548311155b610727576040517f08c379a000000000000000000000000000000000000000000000000000000000815260040161071e90610fc7565b60405180910390fd5b8134101561076a576040517f08c379a000000000000000000000000000000000000000000000000000000000815260040161076190610fa7565b60405180910390fd5b8060040160149054906101000a900460ff16156107bc576040517f08c379a00000000000000000000000000000000000000000000000000000000081526004016107b390610f67565b60405180910390fd5b8060040160009054906101000a900473ffffffffffffffffffffffffffffffffffffffff1673ffffffffffffffffffffffffffffffffffffffff166108fc82600301549081150290604051600060405180830381858888f1935050505015801561082a573d6000803e3d6000fd5b507f000000000000000000000000000000000000000000000000000000000000000073ffffffffffffffffffffffffffffffffffffffff166108fc82600301548461087591906111cc565b9081150290604051600060405180830381858888f193505050501580156108a0573d6000803e3d6000fd5b5060018160040160146101000a81548160ff0219169083151502179055508060010160009054906101000a900473ffffffffffffffffffffffffffffffffffffffff1673ffffffffffffffffffffffffffffffffffffffff166323b872dd303384600201546040518463ffffffff1660e01b815260040161092393929190610f30565b600060405180830381600087803b15801561093d57600080fd5b505af1158015610951573d6000803e3d6000fd5b505050503373ffffffffffffffffffffffffffffffffffffffff168160040160009054906101000a900473ffffffffffffffffffffffffffffffffffffffff1673ffffffffffffffffffffffffffffffffffffffff168260010160009054906101000a900473ffffffffffffffffffffffffffffffffffffffff1673ffffffffffffffffffffffffffffffffffffffff167f8b4c9c8a607d67b321582dd8461041b1dc2ceeca70c8b7f37f8e02095cf2e76d8685600201548660030154604051610a1d939291906110a3565b60405180910390a45050610a2f610d0e565b50565b610a3a610cbe565b60008111610a7d576040517f08c379a0000000000000000000000000000000000000000000000000000000008152600401610a7490610f87565b60405180910390fd5b60016000815480929190610a9090611290565b91905055508273ffffffffffffffffffffffffffffffffffffffff166323b872dd3330856040518463ffffffff1660e01b8152600401610ad293929190610f30565b600060405180830381600087803b158015610aec57600080fd5b505af1158015610b00573d6000803e3d6000fd5b505050506040518060c0016040528060015481526020018473ffffffffffffffffffffffffffffffffffffffff1681526020018381526020018281526020013373ffffffffffffffffffffffffffffffffffffffff168152602001600015158152506002600060015481526020019081526020016000206000820151816000015560208201518160010160006101000a81548173ffffffffffffffffffffffffffffffffffffffff021916908373ffffffffffffffffffffffffffffffffffffffff160217905550604082015181600201556060820151816003015560808201518160040160006101000a81548173ffffffffffffffffffffffffffffffffffffffff021916908373ffffffffffffffffffffffffffffffffffffffff16021790555060a08201518160040160146101000a81548160ff0219169083151502179055509050503373ffffffffffffffffffffffffffffffffffffffff168373ffffffffffffffffffffffffffffffffffffffff167f655a0cf9c8db81512be9a76dc1c5ae5380b8816ce6ad659cd61b715e2999d59a6001548585604051610ca9939291906110a3565b60405180910390a3610cb9610d0e565b505050565b60026000541415610d04576040517f08c379a0000000000000000000000000000000000000000000000000000000008152600401610cfb90611007565b60405180910390fd5b6002600081905550565b6001600081905550565b600081519050610d2781611479565b92915050565b600081359050610d3c81611490565b92915050565b600081359050610d51816114a7565b92915050565b600060208284031215610d6957600080fd5b6000610d7784828501610d18565b91505092915050565b600080600060608486031215610d9557600080fd5b6000610da386828701610d2d565b9350506020610db486828701610d42565b9250506040610dc586828701610d42565b9150509250925092565b600060208284031215610de157600080fd5b6000610def84828501610d42565b91505092915050565b610e0181611212565b82525050565b610e1081611200565b82525050565b610e1f81611224565b82525050565b610e2e8161126c565b82525050565b6000610e416011836110da565b9150610e4c82611337565b602082019050919050565b6000610e64601f836110da565b9150610e6f82611360565b602082019050919050565b6000610e876033836110da565b9150610e9282611389565b604082019050919050565b6000610eaa6012836110da565b9150610eb5826113d8565b602082019050919050565b6000610ecd6022836110da565b9150610ed882611401565b604082019050919050565b6000610ef0601f836110da565b9150610efb82611450565b602082019050919050565b610f0f81611262565b82525050565b6000602082019050610f2a6000830184610df8565b92915050565b6000606082019050610f456000830186610e07565b610f526020830185610e07565b610f5f6040830184610f06565b949350505050565b60006020820190508181036000830152610f8081610e34565b9050919050565b60006020820190508181036000830152610fa081610e57565b9050919050565b60006020820190508181036000830152610fc081610e7a565b9050919050565b60006020820190508181036000830152610fe081610e9d565b9050919050565b6000602082019050818103600083015261100081610ec0565b9050919050565b6000602082019050818103600083015261102081610ee3565b9050919050565b600060208201905061103c6000830184610f06565b92915050565b600060c0820190506110576000830189610f06565b6110646020830188610e25565b6110716040830187610f06565b61107e6060830186610f06565b61108b6080830185610df8565b61109860a0830184610e16565b979650505050505050565b60006060820190506110b86000830186610f06565b6110c56020830185610f06565b6110d26040830184610f06565b949350505050565b600082825260208201905092915050565b60006110f682611262565b915061110183611262565b9250827fffffffffffffffffffffffffffffffffffffffffffffffffffffffffffffffff03821115611136576111356112d9565b5b828201905092915050565b600061114c82611262565b915061115783611262565b92508261116757611166611308565b5b828204905092915050565b600061117d82611262565b915061118883611262565b9250817fffffffffffffffffffffffffffffffffffffffffffffffffffffffffffffffff04831182151516156111c1576111c06112d9565b5b828202905092915050565b60006111d782611262565b91506111e283611262565b9250828210156111f5576111f46112d9565b5b828203905092915050565b600061120b82611242565b9050919050565b600061121d82611242565b9050919050565b60008115159050919050565b600061123b82611200565b9050919050565b600073ffffffffffffffffffffffffffffffffffffffff82169050919050565b6000819050919050565b60006112778261127e565b9050919050565b600061128982611242565b9050919050565b600061129b82611262565b91507fffffffffffffffffffffffffffffffffffffffffffffffffffffffffffffffff8214156112ce576112cd6112d9565b5b600182019050919050565b7f4e487b7100000000000000000000000000000000000000000000000000000000600052601160045260246000fd5b7f4e487b7100000000000000000000000000000000000000000000000000000000600052601260045260246000fd5b7f6974656d20616c726561647920736f6c64000000000000000000000000000000600082015250565b7f5072696365206d7573742062652067726561746572207468616e207a65726f00600082015250565b7f6e6f7420656e6f75676820657468657220746f20636f766572206974656d207060008201527f7269636520616e64206d61726b65742066656500000000000000000000000000602082015250565b7f6974656d20646f65736e27742065786973740000000000000000000000000000600082015250565b7f596f7520617265206e6f7420746865206f776e6572206f662074686520746f6b60008201527f656e000000000000000000000000000000000000000000000000000000000000602082015250565b7f5265656e7472616e637947756172643a207265656e7472616e742063616c6c00600082015250565b61148281611200565b811461148d57600080fd5b50565b61149981611230565b81146114a457600080fd5b50565b6114b081611262565b81146114bb57600080fd5b5056fea2646970667358221220ff073ec65383e15324ebb1666f723e4333fc59807b7b0e610bb4152fbd17838e64736f6c63430008040033",
  "linkReferences": {},
  "deployedLinkReferences": {}
}