{
  "_format": "hh-sol-artifact-1",
  "contractName": "MyToken",
  "sourceName": "src/backend/contracts/NFT.sol",
  "abi": [
    {
      "inputs": [],
      "stateMutability": "nonpayable",
      "type": "constructor"
    },
    {
      "anonymous": false,
      "inputs": [
        {
          "indexed": true,
          "internalType": "address",
          "name": "owner",
          "type": "address"
        },
        {
          "indexed": true,
          "internalType": "address",
          "name": "approved",
          "type": "address"
        },
        {
          "indexed": true,
          "internalType": "uint256",
          "name": "tokenId",
          "type": "uint256"
        }
      ],
      "name": "Approval",
      "type": "event"
    },
    {
      "anonymous": false,
      "inputs": [
        {
          "indexed": true,
          "internalType": "address",
          "name": "owner",
          "type": "address"
        },
        {
          "indexed": true,
          "internalType": "address",
          "name": "operator",
          "type": "address"
        },
        {
          "indexed": false,
          "internalType": "bool",
          "name": "approved",
          "type": "bool"
        }
      ],
      "name": "ApprovalForAll",
      "type": "event"
    },
    {
      "anonymous": false,
      "inputs": [
        {
          "indexed": false,
          "internalType": "uint256",
          "name": "_fromTokenId",
          "type": "uint256"
        },
        {
          "indexed": false,
          "internalType": "uint256",
          "name": "_toTokenId",
          "type": "uint256"
        }
      ],
      "name": "BatchMetadataUpdate",
      "type": "event"
    },
    {
      "anonymous": false,
      "inputs": [
        {
          "indexed": false,
          "internalType": "uint256",
          "name": "_tokenId",
          "type": "uint256"
        }
      ],
      "name": "MetadataUpdate",
      "type": "event"
    },
    {
      "anonymous": false,
      "inputs": [
        {
          "indexed": true,
          "internalType": "address",
          "name": "previousOwner",
          "type": "address"
        },
        {
          "indexed": true,
          "internalType": "address",
          "name": "newOwner",
          "type": "address"
        }
      ],
      "name": "OwnershipTransferred",
      "type": "event"
    },
    {
      "anonymous": false,
      "inputs": [
        {
          "indexed": true,
          "internalType": "address",
          "name": "from",
          "type": "address"
        },
        {
          "indexed": true,
          "internalType": "address",
          "name": "to",
          "type": "address"
        },
        {
          "indexed": true,
          "internalType": "uint256",
          "name": "tokenId",
          "type": "uint256"
        }
      ],
      "name": "Transfer",
      "type": "event"
    },
    {
      "inputs": [
        {
          "internalType": "address",
          "name": "to",
          "type": "address"
        },
        {
          "internalType": "uint256",
          "name": "tokenId",
          "type": "uint256"
        }
      ],
      "name": "approve",
      "outputs": [],
      "stateMutability": "nonpayable",
      "type": "function"
    },
    {
      "inputs": [
        {
          "internalType": "address",
          "name": "owner",
          "type": "address"
        }
      ],
      "name": "balanceOf",
      "outputs": [
        {
          "internalType": "uint256",
          "name": "",
          "type": "uint256"
        }
      ],
      "stateMutability": "view",
      "type": "function"
    },
    {
      "inputs": [
        {
          "internalType": "uint256",
          "name": "tokenId",
          "type": "uint256"
        }
      ],
      "name": "burn",
      "outputs": [],
      "stateMutability": "nonpayable",
      "type": "function"
    },
    {
      "inputs": [
        {
          "internalType": "uint256",
          "name": "tokenId",
          "type": "uint256"
        }
      ],
      "name": "getApproved",
      "outputs": [
        {
          "internalType": "address",
          "name": "",
          "type": "address"
        }
      ],
      "stateMutability": "view",
      "type": "function"
    },
    {
      "inputs": [
        {
          "internalType": "address",
          "name": "owner",
          "type": "address"
        },
        {
          "internalType": "address",
          "name": "operator",
          "type": "address"
        }
      ],
      "name": "isApprovedForAll",
      "outputs": [
        {
          "internalType": "bool",
          "name": "",
          "type": "bool"
        }
      ],
      "stateMutability": "view",
      "type": "function"
    },
    {
      "inputs": [],
      "name": "name",
      "outputs": [
        {
          "internalType": "string",
          "name": "",
          "type": "string"
        }
      ],
      "stateMutability": "view",
      "type": "function"
    },
    {
      "inputs": [],
      "name": "owner",
      "outputs": [
        {
          "internalType": "address",
          "name": "",
          "type": "address"
        }
      ],
      "stateMutability": "view",
      "type": "function"
    },
    {
      "inputs": [
        {
          "internalType": "uint256",
          "name": "tokenId",
          "type": "uint256"
        }
      ],
      "name": "ownerOf",
      "outputs": [
        {
          "internalType": "address",
          "name": "",
          "type": "address"
        }
      ],
      "stateMutability": "view",
      "type": "function"
    },
    {
      "inputs": [],
      "name": "renounceOwnership",
      "outputs": [],
      "stateMutability": "nonpayable",
      "type": "function"
    },
    {
      "inputs": [
        {
          "internalType": "address",
          "name": "to",
          "type": "address"
        },
        {
          "internalType": "string",
          "name": "uri",
          "type": "string"
        }
      ],
      "name": "safeMint",
      "outputs": [],
      "stateMutability": "nonpayable",
      "type": "function"
    },
    {
      "inputs": [
        {
          "internalType": "address",
          "name": "from",
          "type": "address"
        },
        {
          "internalType": "address",
          "name": "to",
          "type": "address"
        },
        {
          "internalType": "uint256",
          "name": "tokenId",
          "type": "uint256"
        }
      ],
      "name": "safeTransferFrom",
      "outputs": [],
      "stateMutability": "nonpayable",
      "type": "function"
    },
    {
      "inputs": [
        {
          "internalType": "address",
          "name": "from",
          "type": "address"
        },
        {
          "internalType": "address",
          "name": "to",
          "type": "address"
        },
        {
          "internalType": "uint256",
          "name": "tokenId",
          "type": "uint256"
        },
        {
          "internalType": "bytes",
          "name": "data",
          "type": "bytes"
        }
      ],
      "name": "safeTransferFrom",
      "outputs": [],
      "stateMutability": "nonpayable",
      "type": "function"
    },
    {
      "inputs": [
        {
          "internalType": "address",
          "name": "operator",
          "type": "address"
        },
        {
          "internalType": "bool",
          "name": "approved",
          "type": "bool"
        }
      ],
      "name": "setApprovalForAll",
      "outputs": [],
      "stateMutability": "nonpayable",
      "type": "function"
    },
    {
      "inputs": [
        {
          "internalType": "bytes4",
          "name": "interfaceId",
          "type": "bytes4"
        }
      ],
      "name": "supportsInterface",
      "outputs": [
        {
          "internalType": "bool",
          "name": "",
          "type": "bool"
        }
      ],
      "stateMutability": "view",
      "type": "function"
    },
    {
      "inputs": [],
      "name": "symbol",
      "outputs": [
        {
          "internalType": "string",
          "name": "",
          "type": "string"
        }
      ],
      "stateMutability": "view",
      "type": "function"
    },
    {
      "inputs": [
        {
          "internalType": "uint256",
          "name": "tokenId",
          "type": "uint256"
        }
      ],
      "name": "tokenURI",
      "outputs": [
        {
          "internalType": "string",
          "name": "",
          "type": "string"
        }
      ],
      "stateMutability": "view",
      "type": "function"
    },
    {
      "inputs": [
        {
          "internalType": "address",
          "name": "from",
          "type": "address"
        },
        {
          "internalType": "address",
          "name": "to",
          "type": "address"
        },
        {
          "internalType": "uint256",
          "name": "tokenId",
          "type": "uint256"
        }
      ],
      "name": "transferFrom",
      "outputs": [],
      "stateMutability": "nonpayable",
      "type": "function"
    },
    {
      "inputs": [
        {
          "internalType": "address",
          "name": "newOwner",
          "type": "address"
        }
      ],
      "name": "transferOwnership",
      "outputs": [],
      "stateMutability": "nonpayable",
      "type": "function"
    }
  ],
  "bytecode": "0x60806040523480156200001157600080fd5b506040518060400160405280600781526020017f4d79546f6b656e000000000000000000000000000000000000000000000000008152506040518060400160405280600381526020017f4d544b0000000000000000000000000000000000000000000000000000000000815250816000908051906020019062000096929190620001a6565b508060019080519060200190620000af929190620001a6565b505050620000d2620000c6620000d860201b60201c565b620000e060201b60201c565b620002bb565b600033905090565b6000600760009054906101000a900473ffffffffffffffffffffffffffffffffffffffff16905081600760006101000a81548173ffffffffffffffffffffffffffffffffffffffff021916908373ffffffffffffffffffffffffffffffffffffffff1602179055508173ffffffffffffffffffffffffffffffffffffffff168173ffffffffffffffffffffffffffffffffffffffff167f8be0079c531659141344cd1fd0a4f28419497f9722a3daafe3b4186f6b6457e060405160405180910390a35050565b828054620001b49062000256565b90600052602060002090601f016020900481019282620001d8576000855562000224565b82601f10620001f357805160ff191683800117855562000224565b8280016001018555821562000224579182015b828111156200022357825182559160200191906001019062000206565b5b50905062000233919062000237565b5090565b5b808211156200025257600081600090555060010162000238565b5090565b600060028204905060018216806200026f57607f821691505b602082108114156200028657620002856200028c565b5b50919050565b7f4e487b7100000000000000000000000000000000000000000000000000000000600052602260045260246000fd5b61304780620002cb6000396000f3fe608060405234801561001057600080fd5b50600436106101165760003560e01c8063715018a6116100a2578063b88d4fde11610071578063b88d4fde146102cb578063c87b56dd146102e7578063d204c45e14610317578063e985e9c514610333578063f2fde38b1461036357610116565b8063715018a6146102695780638da5cb5b1461027357806395d89b4114610291578063a22cb465146102af57610116565b806323b872dd116100e957806323b872dd146101b557806342842e0e146101d157806342966c68146101ed5780636352211e1461020957806370a082311461023957610116565b806301ffc9a71461011b57806306fdde031461014b578063081812fc14610169578063095ea7b314610199575b600080fd5b610135600480360381019061013091906123f7565b61037f565b60405161014291906127b7565b60405180910390f35b610153610391565b60405161016091906127d2565b60405180910390f35b610183600480360381019061017e9190612449565b610423565b6040516101909190612750565b60405180910390f35b6101b360048036038101906101ae91906123bb565b610469565b005b6101cf60048036038101906101ca9190612261565b610581565b005b6101eb60048036038101906101e69190612261565b6105e1565b005b61020760048036038101906102029190612449565b610601565b005b610223600480360381019061021e9190612449565b61065d565b6040516102309190612750565b60405180910390f35b610253600480360381019061024e91906121fc565b6106e4565b60405161026091906129b4565b60405180910390f35b61027161079c565b005b61027b6107b0565b6040516102889190612750565b60405180910390f35b6102996107da565b6040516102a691906127d2565b60405180910390f35b6102c960048036038101906102c4919061232b565b61086c565b005b6102e560048036038101906102e091906122b0565b610882565b005b61030160048036038101906102fc9190612449565b6108e4565b60405161030e91906127d2565b60405180910390f35b610331600480360381019061032c9190612367565b6108f6565b005b61034d60048036038101906103489190612225565b61092f565b60405161035a91906127b7565b60405180910390f35b61037d600480360381019061037891906121fc565b6109c3565b005b600061038a82610a47565b9050919050565b6060600080546103a090612b4f565b80601f01602080910402602001604051908101604052809291908181526020018280546103cc90612b4f565b80156104195780601f106103ee57610100808354040283529160200191610419565b820191906000526020600020905b8154815290600101906020018083116103fc57829003601f168201915b5050505050905090565b600061042e82610aa8565b6004600083815260200190815260200160002060009054906101000a900473ffffffffffffffffffffffffffffffffffffffff169050919050565b60006104748261065d565b90508073ffffffffffffffffffffffffffffffffffffffff168373ffffffffffffffffffffffffffffffffffffffff1614156104e5576040517f08c379a00000000000000000000000000000000000000000000000000000000081526004016104dc90612974565b60405180910390fd5b8073ffffffffffffffffffffffffffffffffffffffff16610504610af3565b73ffffffffffffffffffffffffffffffffffffffff16148061053357506105328161052d610af3565b61092f565b5b610572576040517f08c379a000000000000000000000000000000000000000000000000000000000815260040161056990612994565b60405180910390fd5b61057c8383610afb565b505050565b61059261058c610af3565b82610bb4565b6105d1576040517f08c379a00000000000000000000000000000000000000000000000000000000081526004016105c8906127f4565b60405180910390fd5b6105dc838383610c49565b505050565b6105fc83838360405180602001604052806000815250610882565b505050565b61061261060c610af3565b82610bb4565b610651576040517f08c379a0000000000000000000000000000000000000000000000000000000008152600401610648906127f4565b60405180910390fd5b61065a81610f43565b50565b60008061066983610f4f565b9050600073ffffffffffffffffffffffffffffffffffffffff168173ffffffffffffffffffffffffffffffffffffffff1614156106db576040517f08c379a00000000000000000000000000000000000000000000000000000000081526004016106d290612954565b60405180910390fd5b80915050919050565b60008073ffffffffffffffffffffffffffffffffffffffff168273ffffffffffffffffffffffffffffffffffffffff161415610755576040517f08c379a000000000000000000000000000000000000000000000000000000000815260040161074c906128d4565b60405180910390fd5b600360008373ffffffffffffffffffffffffffffffffffffffff1673ffffffffffffffffffffffffffffffffffffffff168152602001908152602001600020549050919050565b6107a4610f8c565b6107ae600061100a565b565b6000600760009054906101000a900473ffffffffffffffffffffffffffffffffffffffff16905090565b6060600180546107e990612b4f565b80601f016020809104026020016040519081016040528092919081815260200182805461081590612b4f565b80156108625780601f1061083757610100808354040283529160200191610862565b820191906000526020600020905b81548152906001019060200180831161084557829003601f168201915b5050505050905090565b61087e610877610af3565b83836110d0565b5050565b61089361088d610af3565b83610bb4565b6108d2576040517f08c379a00000000000000000000000000000000000000000000000000000000081526004016108c9906127f4565b60405180910390fd5b6108de8484848461123d565b50505050565b60606108ef82611299565b9050919050565b6108fe610f8c565b600061090a60086113ac565b905061091660086113ba565b61092083826113d0565b61092a81836113ee565b505050565b6000600560008473ffffffffffffffffffffffffffffffffffffffff1673ffffffffffffffffffffffffffffffffffffffff16815260200190815260200160002060008373ffffffffffffffffffffffffffffffffffffffff1673ffffffffffffffffffffffffffffffffffffffff16815260200190815260200160002060009054906101000a900460ff16905092915050565b6109cb610f8c565b600073ffffffffffffffffffffffffffffffffffffffff168173ffffffffffffffffffffffffffffffffffffffff161415610a3b576040517f08c379a0000000000000000000000000000000000000000000000000000000008152600401610a3290612834565b60405180910390fd5b610a448161100a565b50565b6000634906490660e01b7bffffffffffffffffffffffffffffffffffffffffffffffffffffffff1916827bffffffffffffffffffffffffffffffffffffffffffffffffffffffff19161480610aa15750610aa082611499565b5b9050919050565b610ab18161157b565b610af0576040517f08c379a0000000000000000000000000000000000000000000000000000000008152600401610ae790612954565b60405180910390fd5b50565b600033905090565b816004600083815260200190815260200160002060006101000a81548173ffffffffffffffffffffffffffffffffffffffff021916908373ffffffffffffffffffffffffffffffffffffffff160217905550808273ffffffffffffffffffffffffffffffffffffffff16610b6e8361065d565b73ffffffffffffffffffffffffffffffffffffffff167f8c5be1e5ebec7d5bd14f71427d1e84f3dd0314c0f7b2291e5b200ac8c7c3b92560405160405180910390a45050565b600080610bc08361065d565b90508073ffffffffffffffffffffffffffffffffffffffff168473ffffffffffffffffffffffffffffffffffffffff161480610c025750610c01818561092f565b5b80610c4057508373ffffffffffffffffffffffffffffffffffffffff16610c2884610423565b73ffffffffffffffffffffffffffffffffffffffff16145b91505092915050565b8273ffffffffffffffffffffffffffffffffffffffff16610c698261065d565b73ffffffffffffffffffffffffffffffffffffffff1614610cbf576040517f08c379a0000000000000000000000000000000000000000000000000000000008152600401610cb690612854565b60405180910390fd5b600073ffffffffffffffffffffffffffffffffffffffff168273ffffffffffffffffffffffffffffffffffffffff161415610d2f576040517f08c379a0000000000000000000000000000000000000000000000000000000008152600401610d2690612894565b60405180910390fd5b610d3c83838360016115bc565b8273ffffffffffffffffffffffffffffffffffffffff16610d5c8261065d565b73ffffffffffffffffffffffffffffffffffffffff1614610db2576040517f08c379a0000000000000000000000000000000000000000000000000000000008152600401610da990612854565b60405180910390fd5b6004600082815260200190815260200160002060006101000a81549073ffffffffffffffffffffffffffffffffffffffff02191690556001600360008573ffffffffffffffffffffffffffffffffffffffff1673ffffffffffffffffffffffffffffffffffffffff168152602001908152602001600020600082825403925050819055506001600360008473ffffffffffffffffffffffffffffffffffffffff1673ffffffffffffffffffffffffffffffffffffffff16815260200190815260200160002060008282540192505081905550816002600083815260200190815260200160002060006101000a81548173ffffffffffffffffffffffffffffffffffffffff021916908373ffffffffffffffffffffffffffffffffffffffff160217905550808273ffffffffffffffffffffffffffffffffffffffff168473ffffffffffffffffffffffffffffffffffffffff167fddf252ad1be2c89b69c2b068fc378daa952ba7f163c4a11628f55a4df523b3ef60405160405180910390a4610f3e83838360016115c2565b505050565b610f4c816115c8565b50565b60006002600083815260200190815260200160002060009054906101000a900473ffffffffffffffffffffffffffffffffffffffff169050919050565b610f94610af3565b73ffffffffffffffffffffffffffffffffffffffff16610fb26107b0565b73ffffffffffffffffffffffffffffffffffffffff1614611008576040517f08c379a0000000000000000000000000000000000000000000000000000000008152600401610fff90612934565b60405180910390fd5b565b6000600760009054906101000a900473ffffffffffffffffffffffffffffffffffffffff16905081600760006101000a81548173ffffffffffffffffffffffffffffffffffffffff021916908373ffffffffffffffffffffffffffffffffffffffff1602179055508173ffffffffffffffffffffffffffffffffffffffff168173ffffffffffffffffffffffffffffffffffffffff167f8be0079c531659141344cd1fd0a4f28419497f9722a3daafe3b4186f6b6457e060405160405180910390a35050565b8173ffffffffffffffffffffffffffffffffffffffff168373ffffffffffffffffffffffffffffffffffffffff16141561113f576040517f08c379a0000000000000000000000000000000000000000000000000000000008152600401611136906128b4565b60405180910390fd5b80600560008573ffffffffffffffffffffffffffffffffffffffff1673ffffffffffffffffffffffffffffffffffffffff16815260200190815260200160002060008473ffffffffffffffffffffffffffffffffffffffff1673ffffffffffffffffffffffffffffffffffffffff16815260200190815260200160002060006101000a81548160ff0219169083151502179055508173ffffffffffffffffffffffffffffffffffffffff168373ffffffffffffffffffffffffffffffffffffffff167f17307eab39ab6107e8899845ad3d59bd9653f200f220920489ca2b5937696c318360405161123091906127b7565b60405180910390a3505050565b611248848484610c49565b6112548484848461161b565b611293576040517f08c379a000000000000000000000000000000000000000000000000000000000815260040161128a90612814565b60405180910390fd5b50505050565b60606112a482610aa8565b60006006600084815260200190815260200160002080546112c490612b4f565b80601f01602080910402602001604051908101604052809291908181526020018280546112f090612b4f565b801561133d5780601f106113125761010080835404028352916020019161133d565b820191906000526020600020905b81548152906001019060200180831161132057829003601f168201915b50505050509050600061134e6117b2565b90506000815114156113645781925050506113a7565b60008251111561139957808260405160200161138192919061272c565b604051602081830303815290604052925050506113a7565b6113a2846117c9565b925050505b919050565b600081600001549050919050565b6001816000016000828254019250508190555050565b6113ea828260405180602001604052806000815250611831565b5050565b6113f78261157b565b611436576040517f08c379a000000000000000000000000000000000000000000000000000000000815260040161142d906128f4565b60405180910390fd5b8060066000848152602001908152602001600020908051906020019061145d929190611fe0565b507ff8e1a15aba9398e019f0b49df1a4fde98ee17ae345cb5f6b5e2c27f5033e8ce78260405161148d91906129b4565b60405180910390a15050565b60007f80ac58cd000000000000000000000000000000000000000000000000000000007bffffffffffffffffffffffffffffffffffffffffffffffffffffffff1916827bffffffffffffffffffffffffffffffffffffffffffffffffffffffff1916148061156457507f5b5e139f000000000000000000000000000000000000000000000000000000007bffffffffffffffffffffffffffffffffffffffffffffffffffffffff1916827bffffffffffffffffffffffffffffffffffffffffffffffffffffffff1916145b8061157457506115738261188c565b5b9050919050565b60008073ffffffffffffffffffffffffffffffffffffffff1661159d83610f4f565b73ffffffffffffffffffffffffffffffffffffffff1614159050919050565b50505050565b50505050565b6115d1816118f6565b60006006600083815260200190815260200160002080546115f190612b4f565b905014611618576006600082815260200190815260200160002060006116179190612066565b5b50565b600061163c8473ffffffffffffffffffffffffffffffffffffffff16611a44565b156117a5578373ffffffffffffffffffffffffffffffffffffffff1663150b7a02611665610af3565b8786866040518563ffffffff1660e01b8152600401611687949392919061276b565b602060405180830381600087803b1580156116a157600080fd5b505af19250505080156116d257506040513d601f19601f820116820180604052508101906116cf9190612420565b60015b611755573d8060008114611702576040519150601f19603f3d011682016040523d82523d6000602084013e611707565b606091505b5060008151141561174d576040517f08c379a000000000000000000000000000000000000000000000000000000000815260040161174490612814565b60405180910390fd5b805181602001fd5b63150b7a0260e01b7bffffffffffffffffffffffffffffffffffffffffffffffffffffffff1916817bffffffffffffffffffffffffffffffffffffffffffffffffffffffff1916149150506117aa565b600190505b949350505050565b606060405180602001604052806000815250905090565b60606117d482610aa8565b60006117de6117b2565b905060008151116117fe5760405180602001604052806000815250611829565b8061180884611a67565b60405160200161181992919061272c565b6040516020818303038152906040525b915050919050565b61183b8383611b8b565b611848600084848461161b565b611887576040517f08c379a000000000000000000000000000000000000000000000000000000000815260040161187e90612814565b60405180910390fd5b505050565b60007f01ffc9a7000000000000000000000000000000000000000000000000000000007bffffffffffffffffffffffffffffffffffffffffffffffffffffffff1916827bffffffffffffffffffffffffffffffffffffffffffffffffffffffff1916149050919050565b60006119018261065d565b90506119118160008460016115bc565b61191a8261065d565b90506004600083815260200190815260200160002060006101000a81549073ffffffffffffffffffffffffffffffffffffffff02191690556001600360008373ffffffffffffffffffffffffffffffffffffffff1673ffffffffffffffffffffffffffffffffffffffff168152602001908152602001600020600082825403925050819055506002600083815260200190815260200160002060006101000a81549073ffffffffffffffffffffffffffffffffffffffff021916905581600073ffffffffffffffffffffffffffffffffffffffff168273ffffffffffffffffffffffffffffffffffffffff167fddf252ad1be2c89b69c2b068fc378daa952ba7f163c4a11628f55a4df523b3ef60405160405180910390a4611a408160008460016115c2565b5050565b6000808273ffffffffffffffffffffffffffffffffffffffff163b119050919050565b606060006001611a7684611da9565b01905060008167ffffffffffffffff811115611abb577f4e487b7100000000000000000000000000000000000000000000000000000000600052604160045260246000fd5b6040519080825280601f01601f191660200182016040528015611aed5781602001600182028036833780820191505090505b509050600082602001820190505b600115611b80578080600190039150507f3031323334353637383961626364656600000000000000000000000000000000600a86061a8153600a8581611b6a577f4e487b7100000000000000000000000000000000000000000000000000000000600052601260045260246000fd5b0494506000851415611b7b57611b80565b611afb565b819350505050919050565b600073ffffffffffffffffffffffffffffffffffffffff168273ffffffffffffffffffffffffffffffffffffffff161415611bfb576040517f08c379a0000000000000000000000000000000000000000000000000000000008152600401611bf290612914565b60405180910390fd5b611c048161157b565b15611c44576040517f08c379a0000000000000000000000000000000000000000000000000000000008152600401611c3b90612874565b60405180910390fd5b611c526000838360016115bc565b611c5b8161157b565b15611c9b576040517f08c379a0000000000000000000000000000000000000000000000000000000008152600401611c9290612874565b60405180910390fd5b6001600360008473ffffffffffffffffffffffffffffffffffffffff1673ffffffffffffffffffffffffffffffffffffffff16815260200190815260200160002060008282540192505081905550816002600083815260200190815260200160002060006101000a81548173ffffffffffffffffffffffffffffffffffffffff021916908373ffffffffffffffffffffffffffffffffffffffff160217905550808273ffffffffffffffffffffffffffffffffffffffff16600073ffffffffffffffffffffffffffffffffffffffff167fddf252ad1be2c89b69c2b068fc378daa952ba7f163c4a11628f55a4df523b3ef60405160405180910390a4611da56000838360016115c2565b5050565b600080600090507a184f03e93ff9f4daa797ed6e38ed64bf6a1f0100000000000000008310611e2d577a184f03e93ff9f4daa797ed6e38ed64bf6a1f0100000000000000008381611e23577f4e487b7100000000000000000000000000000000000000000000000000000000600052601260045260246000fd5b0492506040810190505b6d04ee2d6d415b85acef81000000008310611e90576d04ee2d6d415b85acef81000000008381611e86577f4e487b7100000000000000000000000000000000000000000000000000000000600052601260045260246000fd5b0492506020810190505b662386f26fc100008310611ee557662386f26fc100008381611edb577f4e487b7100000000000000000000000000000000000000000000000000000000600052601260045260246000fd5b0492506010810190505b6305f5e1008310611f34576305f5e1008381611f2a577f4e487b7100000000000000000000000000000000000000000000000000000000600052601260045260246000fd5b0492506008810190505b6127108310611f7f576127108381611f75577f4e487b7100000000000000000000000000000000000000000000000000000000600052601260045260246000fd5b0492506004810190505b60648310611fc85760648381611fbe577f4e487b7100000000000000000000000000000000000000000000000000000000600052601260045260246000fd5b0492506002810190505b600a8310611fd7576001810190505b80915050919050565b828054611fec90612b4f565b90600052602060002090601f01602090048101928261200e5760008555612055565b82601f1061202757805160ff1916838001178555612055565b82800160010185558215612055579182015b82811115612054578251825591602001919060010190612039565b5b50905061206291906120a6565b5090565b50805461207290612b4f565b6000825580601f1061208457506120a3565b601f0160209004906000526020600020908101906120a291906120a6565b5b50565b5b808211156120bf5760008160009055506001016120a7565b5090565b60006120d66120d1846129f4565b6129cf565b9050828152602081018484840111156120ee57600080fd5b6120f9848285612b0d565b509392505050565b600061211461210f84612a25565b6129cf565b90508281526020810184848401111561212c57600080fd5b612137848285612b0d565b509392505050565b60008135905061214e81612fb5565b92915050565b60008135905061216381612fcc565b92915050565b60008135905061217881612fe3565b92915050565b60008151905061218d81612fe3565b92915050565b600082601f8301126121a457600080fd5b81356121b48482602086016120c3565b91505092915050565b600082601f8301126121ce57600080fd5b81356121de848260208601612101565b91505092915050565b6000813590506121f681612ffa565b92915050565b60006020828403121561220e57600080fd5b600061221c8482850161213f565b91505092915050565b6000806040838503121561223857600080fd5b60006122468582860161213f565b92505060206122578582860161213f565b9150509250929050565b60008060006060848603121561227657600080fd5b60006122848682870161213f565b93505060206122958682870161213f565b92505060406122a6868287016121e7565b9150509250925092565b600080600080608085870312156122c657600080fd5b60006122d48782880161213f565b94505060206122e58782880161213f565b93505060406122f6878288016121e7565b925050606085013567ffffffffffffffff81111561231357600080fd5b61231f87828801612193565b91505092959194509250565b6000806040838503121561233e57600080fd5b600061234c8582860161213f565b925050602061235d85828601612154565b9150509250929050565b6000806040838503121561237a57600080fd5b60006123888582860161213f565b925050602083013567ffffffffffffffff8111156123a557600080fd5b6123b1858286016121bd565b9150509250929050565b600080604083850312156123ce57600080fd5b60006123dc8582860161213f565b92505060206123ed858286016121e7565b9150509250929050565b60006020828403121561240957600080fd5b600061241784828501612169565b91505092915050565b60006020828403121561243257600080fd5b60006124408482850161217e565b91505092915050565b60006020828403121561245b57600080fd5b6000612469848285016121e7565b91505092915050565b61247b81612a99565b82525050565b61248a81612aab565b82525050565b600061249b82612a56565b6124a58185612a6c565b93506124b5818560208601612b1c565b6124be81612c10565b840191505092915050565b60006124d482612a61565b6124de8185612a7d565b93506124ee818560208601612b1c565b6124f781612c10565b840191505092915050565b600061250d82612a61565b6125178185612a8e565b9350612527818560208601612b1c565b80840191505092915050565b6000612540602d83612a7d565b915061254b82612c21565b604082019050919050565b6000612563603283612a7d565b915061256e82612c70565b604082019050919050565b6000612586602683612a7d565b915061259182612cbf565b604082019050919050565b60006125a9602583612a7d565b91506125b482612d0e565b604082019050919050565b60006125cc601c83612a7d565b91506125d782612d5d565b602082019050919050565b60006125ef602483612a7d565b91506125fa82612d86565b604082019050919050565b6000612612601983612a7d565b915061261d82612dd5565b602082019050919050565b6000612635602983612a7d565b915061264082612dfe565b604082019050919050565b6000612658602e83612a7d565b915061266382612e4d565b604082019050919050565b600061267b602083612a7d565b915061268682612e9c565b602082019050919050565b600061269e602083612a7d565b91506126a982612ec5565b602082019050919050565b60006126c1601883612a7d565b91506126cc82612eee565b602082019050919050565b60006126e4602183612a7d565b91506126ef82612f17565b604082019050919050565b6000612707603d83612a7d565b915061271282612f66565b604082019050919050565b61272681612b03565b82525050565b60006127388285612502565b91506127448284612502565b91508190509392505050565b60006020820190506127656000830184612472565b92915050565b60006080820190506127806000830187612472565b61278d6020830186612472565b61279a604083018561271d565b81810360608301526127ac8184612490565b905095945050505050565b60006020820190506127cc6000830184612481565b92915050565b600060208201905081810360008301526127ec81846124c9565b905092915050565b6000602082019050818103600083015261280d81612533565b9050919050565b6000602082019050818103600083015261282d81612556565b9050919050565b6000602082019050818103600083015261284d81612579565b9050919050565b6000602082019050818103600083015261286d8161259c565b9050919050565b6000602082019050818103600083015261288d816125bf565b9050919050565b600060208201905081810360008301526128ad816125e2565b9050919050565b600060208201905081810360008301526128cd81612605565b9050919050565b600060208201905081810360008301526128ed81612628565b9050919050565b6000602082019050818103600083015261290d8161264b565b9050919050565b6000602082019050818103600083015261292d8161266e565b9050919050565b6000602082019050818103600083015261294d81612691565b9050919050565b6000602082019050818103600083015261296d816126b4565b9050919050565b6000602082019050818103600083015261298d816126d7565b9050919050565b600060208201905081810360008301526129ad816126fa565b9050919050565b60006020820190506129c9600083018461271d565b92915050565b60006129d96129ea565b90506129e58282612b81565b919050565b6000604051905090565b600067ffffffffffffffff821115612a0f57612a0e612be1565b5b612a1882612c10565b9050602081019050919050565b600067ffffffffffffffff821115612a4057612a3f612be1565b5b612a4982612c10565b9050602081019050919050565b600081519050919050565b600081519050919050565b600082825260208201905092915050565b600082825260208201905092915050565b600081905092915050565b6000612aa482612ae3565b9050919050565b60008115159050919050565b60007fffffffff0000000000000000000000000000000000000000000000000000000082169050919050565b600073ffffffffffffffffffffffffffffffffffffffff82169050919050565b6000819050919050565b82818337600083830152505050565b60005b83811015612b3a578082015181840152602081019050612b1f565b83811115612b49576000848401525b50505050565b60006002820490506001821680612b6757607f821691505b60208210811415612b7b57612b7a612bb2565b5b50919050565b612b8a82612c10565b810181811067ffffffffffffffff82111715612ba957612ba8612be1565b5b80604052505050565b7f4e487b7100000000000000000000000000000000000000000000000000000000600052602260045260246000fd5b7f4e487b7100000000000000000000000000000000000000000000000000000000600052604160045260246000fd5b6000601f19601f8301169050919050565b7f4552433732313a2063616c6c6572206973206e6f7420746f6b656e206f776e6560008201527f72206f7220617070726f76656400000000000000000000000000000000000000602082015250565b7f4552433732313a207472616e7366657220746f206e6f6e20455243373231526560008201527f63656976657220696d706c656d656e7465720000000000000000000000000000602082015250565b7f4f776e61626c653a206e6577206f776e657220697320746865207a65726f206160008201527f6464726573730000000000000000000000000000000000000000000000000000602082015250565b7f4552433732313a207472616e736665722066726f6d20696e636f72726563742060008201527f6f776e6572000000000000000000000000000000000000000000000000000000602082015250565b7f4552433732313a20746f6b656e20616c7265616479206d696e74656400000000600082015250565b7f4552433732313a207472616e7366657220746f20746865207a65726f2061646460008201527f7265737300000000000000000000000000000000000000000000000000000000602082015250565b7f4552433732313a20617070726f766520746f2063616c6c657200000000000000600082015250565b7f4552433732313a2061646472657373207a65726f206973206e6f74206120766160008201527f6c6964206f776e65720000000000000000000000000000000000000000000000602082015250565b7f45524337323155524953746f726167653a2055524920736574206f66206e6f6e60008201527f6578697374656e7420746f6b656e000000000000000000000000000000000000602082015250565b7f4552433732313a206d696e7420746f20746865207a65726f2061646472657373600082015250565b7f4f776e61626c653a2063616c6c6572206973206e6f7420746865206f776e6572600082015250565b7f4552433732313a20696e76616c696420746f6b656e2049440000000000000000600082015250565b7f4552433732313a20617070726f76616c20746f2063757272656e74206f776e6560008201527f7200000000000000000000000000000000000000000000000000000000000000602082015250565b7f4552433732313a20617070726f76652063616c6c6572206973206e6f7420746f60008201527f6b656e206f776e6572206f7220617070726f76656420666f7220616c6c000000602082015250565b612fbe81612a99565b8114612fc957600080fd5b50565b612fd581612aab565b8114612fe057600080fd5b50565b612fec81612ab7565b8114612ff757600080fd5b50565b61300381612b03565b811461300e57600080fd5b5056fea26469706673582212201c06fc3f2799aea782b47fa3d43d72f4ed4af70842fbf301c281fe3270b032cb64736f6c63430008040033",
  "linkReferences": {},
  "deployedLinkReferences": {}
}